{
  "_format": "hh-sol-artifact-1",
  "contractName": "ConsultationRegist",
  "sourceName": "contracts/registration.sol",
  "abi": [
    {
      "inputs": [
        {
          "internalType": "address",
          "name": "_rolesContractAddress",
          "type": "address"
        }
      ],
      "stateMutability": "nonpayable",
      "type": "constructor"
    },
    {
      "inputs": [
        {
          "internalType": "uint256",
          "name": "",
          "type": "uint256"
        }
      ],
      "name": "accountsWithRegistrations",
      "outputs": [
        {
          "internalType": "address",
          "name": "",
          "type": "address"
        }
      ],
      "stateMutability": "view",
      "type": "function"
    },
    {
      "inputs": [
        {
          "internalType": "address",
          "name": "_wallet",
          "type": "address"
        },
        {
          "internalType": "string",
          "name": "_nama",
          "type": "string"
        },
        {
          "internalType": "string",
          "name": "_telepon",
          "type": "string"
        },
        {
          "internalType": "string",
          "name": "_namaDokter",
          "type": "string"
        },
        {
          "internalType": "string",
          "name": "_sesi",
          "type": "string"
        },
        {
          "internalType": "string",
          "name": "_tanggal",
          "type": "string"
        },
        {
          "internalType": "string",
          "name": "_keluhan",
          "type": "string"
        },
        {
          "internalType": "string",
          "name": "_gender",
          "type": "string"
        },
        {
          "internalType": "bool",
          "name": "_status",
          "type": "bool"
        }
      ],
      "name": "addRegistration",
      "outputs": [],
      "stateMutability": "nonpayable",
      "type": "function"
    },
    {
      "inputs": [],
      "name": "getAllRegistrations",
      "outputs": [
        {
          "components": [
            {
              "internalType": "string",
              "name": "nama",
              "type": "string"
            },
            {
              "internalType": "string",
              "name": "telepon",
              "type": "string"
            },
            {
              "internalType": "string",
              "name": "namaDokter",
              "type": "string"
            },
            {
              "internalType": "string",
              "name": "sesi",
              "type": "string"
            },
            {
              "internalType": "string",
              "name": "tanggal",
              "type": "string"
            },
            {
              "internalType": "string",
              "name": "keluhan",
              "type": "string"
            },
            {
              "internalType": "string",
              "name": "gender",
              "type": "string"
            },
            {
              "internalType": "address",
              "name": "wallet",
              "type": "address"
            },
            {
              "internalType": "bool",
              "name": "status",
              "type": "bool"
            }
          ],
          "internalType": "struct ConsultationRegist.Data[][]",
          "name": "",
          "type": "tuple[][]"
        }
      ],
      "stateMutability": "view",
      "type": "function"
    },
    {
      "inputs": [],
      "name": "getAllSesi",
      "outputs": [
        {
          "internalType": "string[][][]",
          "name": "",
          "type": "string[][][]"
        }
      ],
      "stateMutability": "view",
      "type": "function"
    },
    {
      "inputs": [],
      "name": "getRegistrationEvidence",
      "outputs": [
        {
          "components": [
            {
              "internalType": "string",
              "name": "nama",
              "type": "string"
            },
            {
              "internalType": "string",
              "name": "telepon",
              "type": "string"
            },
            {
              "internalType": "string",
              "name": "namaDokter",
              "type": "string"
            },
            {
              "internalType": "string",
              "name": "sesi",
              "type": "string"
            },
            {
              "internalType": "string",
              "name": "tanggal",
              "type": "string"
            },
            {
              "internalType": "string",
              "name": "keluhan",
              "type": "string"
            },
            {
              "internalType": "string",
              "name": "gender",
              "type": "string"
            },
            {
              "internalType": "address",
              "name": "wallet",
              "type": "address"
            },
            {
              "internalType": "bool",
              "name": "status",
              "type": "bool"
            }
          ],
          "internalType": "struct ConsultationRegist.Data[]",
          "name": "",
          "type": "tuple[]"
        }
      ],
      "stateMutability": "view",
      "type": "function"
    },
    {
      "inputs": [],
      "name": "registrationCount",
      "outputs": [
        {
          "internalType": "uint256",
          "name": "",
          "type": "uint256"
        }
      ],
      "stateMutability": "view",
      "type": "function"
    },
    {
      "inputs": [
        {
          "internalType": "address",
          "name": "",
          "type": "address"
        },
        {
          "internalType": "uint256",
          "name": "",
          "type": "uint256"
        }
      ],
      "name": "registrations",
      "outputs": [
        {
          "internalType": "string",
          "name": "nama",
          "type": "string"
        },
        {
          "internalType": "string",
          "name": "telepon",
          "type": "string"
        },
        {
          "internalType": "string",
          "name": "namaDokter",
          "type": "string"
        },
        {
          "internalType": "string",
          "name": "sesi",
          "type": "string"
        },
        {
          "internalType": "string",
          "name": "tanggal",
          "type": "string"
        },
        {
          "internalType": "string",
          "name": "keluhan",
          "type": "string"
        },
        {
          "internalType": "string",
          "name": "gender",
          "type": "string"
        },
        {
          "internalType": "address",
          "name": "wallet",
          "type": "address"
        },
        {
          "internalType": "bool",
          "name": "status",
          "type": "bool"
        }
      ],
      "stateMutability": "view",
      "type": "function"
    },
    {
      "inputs": [],
      "name": "roles",
      "outputs": [
        {
          "internalType": "contract UserRoles",
          "name": "",
          "type": "address"
        }
      ],
      "stateMutability": "view",
      "type": "function"
    },
    {
      "inputs": [
        {
          "internalType": "address",
          "name": "_wallet",
          "type": "address"
        },
        {
          "internalType": "uint256",
          "name": "_index",
          "type": "uint256"
        },
        {
          "internalType": "string",
          "name": "_nama",
          "type": "string"
        },
        {
          "internalType": "string",
          "name": "_telepon",
          "type": "string"
        },
        {
          "internalType": "string",
          "name": "_namaDokter",
          "type": "string"
        },
        {
          "internalType": "string",
          "name": "_sesi",
          "type": "string"
        },
        {
          "internalType": "string",
          "name": "_tanggal",
          "type": "string"
        },
        {
          "internalType": "string",
          "name": "_keluhan",
          "type": "string"
        },
        {
          "internalType": "string",
          "name": "_gender",
          "type": "string"
        },
        {
          "internalType": "bool",
          "name": "_status",
          "type": "bool"
        }
      ],
      "name": "updateRegistration",
      "outputs": [],
      "stateMutability": "nonpayable",
      "type": "function"
    }
  ],
  "bytecode": "0x60806040523480156200001157600080fd5b506040516200385a3803806200385a8339818101604052810190620000379190620000e8565b806000806101000a81548173ffffffffffffffffffffffffffffffffffffffff021916908373ffffffffffffffffffffffffffffffffffffffff160217905550506200011a565b600080fd5b600073ffffffffffffffffffffffffffffffffffffffff82169050919050565b6000620000b08262000083565b9050919050565b620000c281620000a3565b8114620000ce57600080fd5b50565b600081519050620000e281620000b7565b92915050565b6000602082840312156200010157620001006200007e565b5b60006200011184828501620000d1565b91505092915050565b613730806200012a6000396000f3fe608060405234801561001057600080fd5b50600436106100935760003560e01c80633b4ed703116100665780633b4ed7031461012a57806346b5bef114610148578063c996b7cc14610178578063e1efc46a14610196578063e91d1569146101b257610093565b806309052679146100985780630c38af4a146100d05780630d3eafd6146100ee578063392f5f641461010c575b600080fd5b6100b260048036038101906100ad91906123d9565b6101ce565b6040516100c7999897969594939291906124d3565b60405180910390f35b6100d861061e565b6040516100e5919061286c565b60405180910390f35b6100f6610d7e565b604051610103919061289d565b60405180910390f35b610114610d84565b6040516101219190612917565b60405180910390f35b610132610da8565b60405161013f9190612b78565b60405180910390f35b610162600480360381019061015d9190612b9a565b6114d8565b60405161016f9190612bc7565b60405180910390f35b610180611517565b60405161018d9190612c68565b60405180910390f35b6101b060048036038101906101ab9190612deb565b611afc565b005b6101cc60048036038101906101c79190612f8e565b611e82565b005b600160205281600052604060002081815481106101ea57600080fd5b90600052602060002090600802016000915091505080600001805461020e9061314b565b80601f016020809104026020016040519081016040528092919081815260200182805461023a9061314b565b80156102875780601f1061025c57610100808354040283529160200191610287565b820191906000526020600020905b81548152906001019060200180831161026a57829003601f168201915b50505050509080600101805461029c9061314b565b80601f01602080910402602001604051908101604052809291908181526020018280546102c89061314b565b80156103155780601f106102ea57610100808354040283529160200191610315565b820191906000526020600020905b8154815290600101906020018083116102f857829003601f168201915b50505050509080600201805461032a9061314b565b80601f01602080910402602001604051908101604052809291908181526020018280546103569061314b565b80156103a35780601f10610378576101008083540402835291602001916103a3565b820191906000526020600020905b81548152906001019060200180831161038657829003601f168201915b5050505050908060030180546103b89061314b565b80601f01602080910402602001604051908101604052809291908181526020018280546103e49061314b565b80156104315780601f1061040657610100808354040283529160200191610431565b820191906000526020600020905b81548152906001019060200180831161041457829003601f168201915b5050505050908060040180546104469061314b565b80601f01602080910402602001604051908101604052809291908181526020018280546104729061314b565b80156104bf5780601f10610494576101008083540402835291602001916104bf565b820191906000526020600020905b8154815290600101906020018083116104a257829003601f168201915b5050505050908060050180546104d49061314b565b80601f01602080910402602001604051908101604052809291908181526020018280546105009061314b565b801561054d5780601f106105225761010080835404028352916020019161054d565b820191906000526020600020905b81548152906001019060200180831161053057829003601f168201915b5050505050908060060180546105629061314b565b80601f016020809104026020016040519081016040528092919081815260200182805461058e9061314b565b80156105db5780601f106105b0576101008083540402835291602001916105db565b820191906000526020600020905b8154815290600101906020018083116105be57829003601f168201915b5050505050908060070160009054906101000a900473ffffffffffffffffffffffffffffffffffffffff16908060070160149054906101000a900460ff16905089565b606060008054906101000a900473ffffffffffffffffffffffffffffffffffffffff1673ffffffffffffffffffffffffffffffffffffffff166324d7806c336040518263ffffffff1660e01b81526004016106799190612bc7565b602060405180830381865afa158015610696573d6000803e3d6000fd5b505050506040513d601f19601f820116820180604052508101906106ba9190613191565b8061075b575060008054906101000a900473ffffffffffffffffffffffffffffffffffffffff1673ffffffffffffffffffffffffffffffffffffffff16635c4c9348336040518263ffffffff1660e01b81526004016107199190612bc7565b602060405180830381865afa158015610736573d6000803e3d6000fd5b505050506040513d601f19601f8201168201806040525081019061075a9190613191565b5b61079a576040517f08c379a000000000000000000000000000000000000000000000000000000000815260040161079190613230565b60405180910390fd5b6000600280549050905060008167ffffffffffffffff8111156107c0576107bf612c94565b5b6040519080825280602002602001820160405280156107f357816020015b60608152602001906001900390816107de5790505b50905060005b82811015610d7557600160006002838154811061081957610818613250565b5b9060005260206000200160009054906101000a900473ffffffffffffffffffffffffffffffffffffffff1673ffffffffffffffffffffffffffffffffffffffff1673ffffffffffffffffffffffffffffffffffffffff168152602001908152602001600020805480602002602001604051908101604052809291908181526020016000905b82821015610d405783829060005260206000209060080201604051806101200160405290816000820180546108d29061314b565b80601f01602080910402602001604051908101604052809291908181526020018280546108fe9061314b565b801561094b5780601f106109205761010080835404028352916020019161094b565b820191906000526020600020905b81548152906001019060200180831161092e57829003601f168201915b505050505081526020016001820180546109649061314b565b80601f01602080910402602001604051908101604052809291908181526020018280546109909061314b565b80156109dd5780601f106109b2576101008083540402835291602001916109dd565b820191906000526020600020905b8154815290600101906020018083116109c057829003601f168201915b505050505081526020016002820180546109f69061314b565b80601f0160208091040260200160405190810160405280929190818152602001828054610a229061314b565b8015610a6f5780601f10610a4457610100808354040283529160200191610a6f565b820191906000526020600020905b815481529060010190602001808311610a5257829003601f168201915b50505050508152602001600382018054610a889061314b565b80601f0160208091040260200160405190810160405280929190818152602001828054610ab49061314b565b8015610b015780601f10610ad657610100808354040283529160200191610b01565b820191906000526020600020905b815481529060010190602001808311610ae457829003601f168201915b50505050508152602001600482018054610b1a9061314b565b80601f0160208091040260200160405190810160405280929190818152602001828054610b469061314b565b8015610b935780601f10610b6857610100808354040283529160200191610b93565b820191906000526020600020905b815481529060010190602001808311610b7657829003601f168201915b50505050508152602001600582018054610bac9061314b565b80601f0160208091040260200160405190810160405280929190818152602001828054610bd89061314b565b8015610c255780601f10610bfa57610100808354040283529160200191610c25565b820191906000526020600020905b815481529060010190602001808311610c0857829003601f168201915b50505050508152602001600682018054610c3e9061314b565b80601f0160208091040260200160405190810160405280929190818152602001828054610c6a9061314b565b8015610cb75780601f10610c8c57610100808354040283529160200191610cb7565b820191906000526020600020905b815481529060010190602001808311610c9a57829003601f168201915b505050505081526020016007820160009054906101000a900473ffffffffffffffffffffffffffffffffffffffff1673ffffffffffffffffffffffffffffffffffffffff1673ffffffffffffffffffffffffffffffffffffffff1681526020016007820160149054906101000a900460ff1615151515815250508152602001906001019061089e565b50505050828281518110610d5757610d56613250565b5b60200260200101819052508080610d6d906132ae565b9150506107f9565b50809250505090565b60035481565b60008054906101000a900473ffffffffffffffffffffffffffffffffffffffff1681565b606060008054906101000a900473ffffffffffffffffffffffffffffffffffffffff1673ffffffffffffffffffffffffffffffffffffffff166324d7806c336040518263ffffffff1660e01b8152600401610e039190612bc7565b602060405180830381865afa158015610e20573d6000803e3d6000fd5b505050506040513d601f19601f82011682018060405250810190610e449190613191565b80610ee5575060008054906101000a900473ffffffffffffffffffffffffffffffffffffffff1673ffffffffffffffffffffffffffffffffffffffff16635c4c9348336040518263ffffffff1660e01b8152600401610ea39190612bc7565b602060405180830381865afa158015610ec0573d6000803e3d6000fd5b505050506040513d601f19601f82011682018060405250810190610ee49190613191565b5b80610f86575060008054906101000a900473ffffffffffffffffffffffffffffffffffffffff1673ffffffffffffffffffffffffffffffffffffffff16631132beb5336040518263ffffffff1660e01b8152600401610f449190612bc7565b602060405180830381865afa158015610f61573d6000803e3d6000fd5b505050506040513d601f19601f82011682018060405250810190610f859190613191565b5b610fc5576040517f08c379a0000000000000000000000000000000000000000000000000000000008152600401610fbc90613368565b60405180910390fd5b6000600280549050905060008167ffffffffffffffff811115610feb57610fea612c94565b5b60405190808252806020026020018201604052801561101e57816020015b60608152602001906001900390816110095790505b50905060005b828110156114cf576000600160006002848154811061104657611045613250565b5b9060005260206000200160009054906101000a900473ffffffffffffffffffffffffffffffffffffffff1673ffffffffffffffffffffffffffffffffffffffff1673ffffffffffffffffffffffffffffffffffffffff1681526020019081526020016000208054905090508067ffffffffffffffff8111156110cb576110ca612c94565b5b6040519080825280602002602001820160405280156110fe57816020015b60608152602001906001900390816110e95790505b5083838151811061111257611111613250565b5b602002602001018190525060005b818110156114ba57600267ffffffffffffffff81111561114357611142612c94565b5b60405190808252806020026020018201604052801561117657816020015b60608152602001906001900390816111615790505b5084848151811061118a57611189613250565b5b602002602001015182815181106111a4576111a3613250565b5b602002602001018190525060016000600285815481106111c7576111c6613250565b5b9060005260206000200160009054906101000a900473ffffffffffffffffffffffffffffffffffffffff1673ffffffffffffffffffffffffffffffffffffffff1673ffffffffffffffffffffffffffffffffffffffff168152602001908152602001600020818154811061123e5761123d613250565b5b9060005260206000209060080201600401805461125a9061314b565b80601f01602080910402602001604051908101604052809291908181526020018280546112869061314b565b80156112d35780601f106112a8576101008083540402835291602001916112d3565b820191906000526020600020905b8154815290600101906020018083116112b657829003601f168201915b50505050508484815181106112eb576112ea613250565b5b6020026020010151828151811061130557611304613250565b5b60200260200101516000815181106113205761131f613250565b5b6020026020010181905250600160006002858154811061134357611342613250565b5b9060005260206000200160009054906101000a900473ffffffffffffffffffffffffffffffffffffffff1673ffffffffffffffffffffffffffffffffffffffff1673ffffffffffffffffffffffffffffffffffffffff16815260200190815260200160002081815481106113ba576113b9613250565b5b906000526020600020906008020160030180546113d69061314b565b80601f01602080910402602001604051908101604052809291908181526020018280546114029061314b565b801561144f5780601f106114245761010080835404028352916020019161144f565b820191906000526020600020905b81548152906001019060200180831161143257829003601f168201915b505050505084848151811061146757611466613250565b5b6020026020010151828151811061148157611480613250565b5b602002602001015160018151811061149c5761149b613250565b5b602002602001018190525080806114b2906132ae565b915050611120565b505080806114c7906132ae565b915050611024565b50809250505090565b600281815481106114e857600080fd5b906000526020600020016000915054906101000a900473ffffffffffffffffffffffffffffffffffffffff1681565b606060008054906101000a900473ffffffffffffffffffffffffffffffffffffffff1673ffffffffffffffffffffffffffffffffffffffff16631132beb5336040518263ffffffff1660e01b81526004016115729190612bc7565b602060405180830381865afa15801561158f573d6000803e3d6000fd5b505050506040513d601f19601f820116820180604052508101906115b39190613191565b6115f2576040517f08c379a00000000000000000000000000000000000000000000000000000000081526004016115e9906133fa565b60405180910390fd5b600160003373ffffffffffffffffffffffffffffffffffffffff1673ffffffffffffffffffffffffffffffffffffffff168152602001908152602001600020805480602002602001604051908101604052809291908181526020016000905b82821015611af35783829060005260206000209060080201604051806101200160405290816000820180546116859061314b565b80601f01602080910402602001604051908101604052809291908181526020018280546116b19061314b565b80156116fe5780601f106116d3576101008083540402835291602001916116fe565b820191906000526020600020905b8154815290600101906020018083116116e157829003601f168201915b505050505081526020016001820180546117179061314b565b80601f01602080910402602001604051908101604052809291908181526020018280546117439061314b565b80156117905780601f1061176557610100808354040283529160200191611790565b820191906000526020600020905b81548152906001019060200180831161177357829003601f168201915b505050505081526020016002820180546117a99061314b565b80601f01602080910402602001604051908101604052809291908181526020018280546117d59061314b565b80156118225780601f106117f757610100808354040283529160200191611822565b820191906000526020600020905b81548152906001019060200180831161180557829003601f168201915b5050505050815260200160038201805461183b9061314b565b80601f01602080910402602001604051908101604052809291908181526020018280546118679061314b565b80156118b45780601f10611889576101008083540402835291602001916118b4565b820191906000526020600020905b81548152906001019060200180831161189757829003601f168201915b505050505081526020016004820180546118cd9061314b565b80601f01602080910402602001604051908101604052809291908181526020018280546118f99061314b565b80156119465780601f1061191b57610100808354040283529160200191611946565b820191906000526020600020905b81548152906001019060200180831161192957829003601f168201915b5050505050815260200160058201805461195f9061314b565b80601f016020809104026020016040519081016040528092919081815260200182805461198b9061314b565b80156119d85780601f106119ad576101008083540402835291602001916119d8565b820191906000526020600020905b8154815290600101906020018083116119bb57829003601f168201915b505050505081526020016006820180546119f19061314b565b80601f0160208091040260200160405190810160405280929190818152602001828054611a1d9061314b565b8015611a6a5780601f10611a3f57610100808354040283529160200191611a6a565b820191906000526020600020905b815481529060010190602001808311611a4d57829003601f168201915b505050505081526020016007820160009054906101000a900473ffffffffffffffffffffffffffffffffffffffff1673ffffffffffffffffffffffffffffffffffffffff1673ffffffffffffffffffffffffffffffffffffffff1681526020016007820160149054906101000a900460ff16151515158152505081526020019060010190611651565b50505050905090565b60008054906101000a900473ffffffffffffffffffffffffffffffffffffffff1673ffffffffffffffffffffffffffffffffffffffff166324d7806c336040518263ffffffff1660e01b8152600401611b559190612bc7565b602060405180830381865afa158015611b72573d6000803e3d6000fd5b505050506040513d601f19601f82011682018060405250810190611b969190613191565b80611c37575060008054906101000a900473ffffffffffffffffffffffffffffffffffffffff1673ffffffffffffffffffffffffffffffffffffffff16635c4c9348336040518263ffffffff1660e01b8152600401611bf59190612bc7565b602060405180830381865afa158015611c12573d6000803e3d6000fd5b505050506040513d601f19601f82011682018060405250810190611c369190613191565b5b611c76576040517f08c379a0000000000000000000000000000000000000000000000000000000008152600401611c6d90613230565b60405180910390fd5b6003548910611cba576040517f08c379a0000000000000000000000000000000000000000000000000000000008152600401611cb190613466565b60405180910390fd5b6040518061012001604052808981526020018881526020018781526020018681526020018581526020018481526020018381526020018b73ffffffffffffffffffffffffffffffffffffffff168152602001821515815250600160008c73ffffffffffffffffffffffffffffffffffffffff1673ffffffffffffffffffffffffffffffffffffffff1681526020019081526020016000208a81548110611d6357611d62613250565b5b90600052602060002090600802016000820151816000019081611d869190613628565b506020820151816001019081611d9c9190613628565b506040820151816002019081611db29190613628565b506060820151816003019081611dc89190613628565b506080820151816004019081611dde9190613628565b5060a0820151816005019081611df49190613628565b5060c0820151816006019081611e0a9190613628565b5060e08201518160070160006101000a81548173ffffffffffffffffffffffffffffffffffffffff021916908373ffffffffffffffffffffffffffffffffffffffff1602179055506101008201518160070160146101000a81548160ff02191690831515021790555090505050505050505050505050565b60008054906101000a900473ffffffffffffffffffffffffffffffffffffffff1673ffffffffffffffffffffffffffffffffffffffff166324d7806c336040518263ffffffff1660e01b8152600401611edb9190612bc7565b602060405180830381865afa158015611ef8573d6000803e3d6000fd5b505050506040513d601f19601f82011682018060405250810190611f1c9190613191565b80611fbd575060008054906101000a900473ffffffffffffffffffffffffffffffffffffffff1673ffffffffffffffffffffffffffffffffffffffff16635c4c9348336040518263ffffffff1660e01b8152600401611f7b9190612bc7565b602060405180830381865afa158015611f98573d6000803e3d6000fd5b505050506040513d601f19601f82011682018060405250810190611fbc9190613191565b5b8061205e575060008054906101000a900473ffffffffffffffffffffffffffffffffffffffff1673ffffffffffffffffffffffffffffffffffffffff16631132beb5336040518263ffffffff1660e01b815260040161201c9190612bc7565b602060405180830381865afa158015612039573d6000803e3d6000fd5b505050506040513d601f19601f8201168201806040525081019061205d9190613191565b5b61209d576040517f08c379a000000000000000000000000000000000000000000000000000000000815260040161209490613368565b60405180910390fd5b600160008a73ffffffffffffffffffffffffffffffffffffffff1673ffffffffffffffffffffffffffffffffffffffff1681526020019081526020016000206040518061012001604052808a81526020018981526020018881526020018781526020018681526020018581526020018481526020018b73ffffffffffffffffffffffffffffffffffffffff168152602001831515815250908060018154018082558091505060019003906000526020600020906008020160009091909190915060008201518160000190816121729190613628565b5060208201518160010190816121889190613628565b50604082015181600201908161219e9190613628565b5060608201518160030190816121b49190613628565b5060808201518160040190816121ca9190613628565b5060a08201518160050190816121e09190613628565b5060c08201518160060190816121f69190613628565b5060e08201518160070160006101000a81548173ffffffffffffffffffffffffffffffffffffffff021916908373ffffffffffffffffffffffffffffffffffffffff1602179055506101008201518160070160146101000a81548160ff021916908315150217905550505060018060008b73ffffffffffffffffffffffffffffffffffffffff1673ffffffffffffffffffffffffffffffffffffffff168152602001908152602001600020805490500361230e576002899080600181540180825580915050600190039060005260206000200160009091909190916101000a81548173ffffffffffffffffffffffffffffffffffffffff021916908373ffffffffffffffffffffffffffffffffffffffff1602179055505b60036000815480929190612321906132ae565b9190505550505050505050505050565b6000604051905090565b600080fd5b600080fd5b600073ffffffffffffffffffffffffffffffffffffffff82169050919050565b600061237082612345565b9050919050565b61238081612365565b811461238b57600080fd5b50565b60008135905061239d81612377565b92915050565b6000819050919050565b6123b6816123a3565b81146123c157600080fd5b50565b6000813590506123d3816123ad565b92915050565b600080604083850312156123f0576123ef61233b565b5b60006123fe8582860161238e565b925050602061240f858286016123c4565b9150509250929050565b600081519050919050565b600082825260208201905092915050565b60005b83811015612453578082015181840152602081019050612438565b60008484015250505050565b6000601f19601f8301169050919050565b600061247b82612419565b6124858185612424565b9350612495818560208601612435565b61249e8161245f565b840191505092915050565b6124b281612365565b82525050565b60008115159050919050565b6124cd816124b8565b82525050565b60006101208201905081810360008301526124ee818c612470565b90508181036020830152612502818b612470565b90508181036040830152612516818a612470565b9050818103606083015261252a8189612470565b9050818103608083015261253e8188612470565b905081810360a08301526125528187612470565b905081810360c08301526125668186612470565b905061257560e08301856124a9565b6125836101008301846124c4565b9a9950505050505050505050565b600081519050919050565b600082825260208201905092915050565b6000819050602082019050919050565b600081519050919050565b600082825260208201905092915050565b6000819050602082019050919050565b600082825260208201905092915050565b600061260582612419565b61260f81856125e9565b935061261f818560208601612435565b6126288161245f565b840191505092915050565b61263c81612365565b82525050565b61264b816124b8565b82525050565b600061012083016000830151848203600086015261266f82826125fa565b9150506020830151848203602086015261268982826125fa565b915050604083015184820360408601526126a382826125fa565b915050606083015184820360608601526126bd82826125fa565b915050608083015184820360808601526126d782826125fa565b91505060a083015184820360a08601526126f182826125fa565b91505060c083015184820360c086015261270b82826125fa565b91505060e083015161272060e0860182612633565b50610100830151612735610100860182612642565b508091505092915050565b600061274c8383612651565b905092915050565b6000602082019050919050565b600061276c826125bd565b61277681856125c8565b935083602082028501612788856125d9565b8060005b858110156127c457848403895281516127a58582612740565b94506127b083612754565b925060208a0199505060018101905061278c565b50829750879550505050505092915050565b60006127e28383612761565b905092915050565b6000602082019050919050565b600061280282612591565b61280c818561259c565b93508360208202850161281e856125ad565b8060005b8581101561285a578484038952815161283b85826127d6565b9450612846836127ea565b925060208a01995050600181019050612822565b50829750879550505050505092915050565b6000602082019050818103600083015261288681846127f7565b905092915050565b612897816123a3565b82525050565b60006020820190506128b2600083018461288e565b92915050565b6000819050919050565b60006128dd6128d86128d384612345565b6128b8565b612345565b9050919050565b60006128ef826128c2565b9050919050565b6000612901826128e4565b9050919050565b612911816128f6565b82525050565b600060208201905061292c6000830184612908565b92915050565b600081519050919050565b600082825260208201905092915050565b6000819050602082019050919050565b600081519050919050565b600082825260208201905092915050565b6000819050602082019050919050565b600081519050919050565b600082825260208201905092915050565b6000819050602082019050919050565b60006129c283836125fa565b905092915050565b6000602082019050919050565b60006129e28261298a565b6129ec8185612995565b9350836020820285016129fe856129a6565b8060005b85811015612a3a5784840389528151612a1b85826129b6565b9450612a26836129ca565b925060208a01995050600181019050612a02565b50829750879550505050505092915050565b6000612a5883836129d7565b905092915050565b6000602082019050919050565b6000612a788261295e565b612a828185612969565b935083602082028501612a948561297a565b8060005b85811015612ad05784840389528151612ab18582612a4c565b9450612abc83612a60565b925060208a01995050600181019050612a98565b50829750879550505050505092915050565b6000612aee8383612a6d565b905092915050565b6000602082019050919050565b6000612b0e82612932565b612b18818561293d565b935083602082028501612b2a8561294e565b8060005b85811015612b665784840389528151612b478582612ae2565b9450612b5283612af6565b925060208a01995050600181019050612b2e565b50829750879550505050505092915050565b60006020820190508181036000830152612b928184612b03565b905092915050565b600060208284031215612bb057612baf61233b565b5b6000612bbe848285016123c4565b91505092915050565b6000602082019050612bdc60008301846124a9565b92915050565b600082825260208201905092915050565b6000612bfe826125bd565b612c088185612be2565b935083602082028501612c1a856125d9565b8060005b85811015612c565784840389528151612c378582612740565b9450612c4283612754565b925060208a01995050600181019050612c1e565b50829750879550505050505092915050565b60006020820190508181036000830152612c828184612bf3565b905092915050565b600080fd5b600080fd5b7f4e487b7100000000000000000000000000000000000000000000000000000000600052604160045260246000fd5b612ccc8261245f565b810181811067ffffffffffffffff82111715612ceb57612cea612c94565b5b80604052505050565b6000612cfe612331565b9050612d0a8282612cc3565b919050565b600067ffffffffffffffff821115612d2a57612d29612c94565b5b612d338261245f565b9050602081019050919050565b82818337600083830152505050565b6000612d62612d5d84612d0f565b612cf4565b905082815260208101848484011115612d7e57612d7d612c8f565b5b612d89848285612d40565b509392505050565b600082601f830112612da657612da5612c8a565b5b8135612db6848260208601612d4f565b91505092915050565b612dc8816124b8565b8114612dd357600080fd5b50565b600081359050612de581612dbf565b92915050565b6000806000806000806000806000806101408b8d031215612e0f57612e0e61233b565b5b6000612e1d8d828e0161238e565b9a50506020612e2e8d828e016123c4565b99505060408b013567ffffffffffffffff811115612e4f57612e4e612340565b5b612e5b8d828e01612d91565b98505060608b013567ffffffffffffffff811115612e7c57612e7b612340565b5b612e888d828e01612d91565b97505060808b013567ffffffffffffffff811115612ea957612ea8612340565b5b612eb58d828e01612d91565b96505060a08b013567ffffffffffffffff811115612ed657612ed5612340565b5b612ee28d828e01612d91565b95505060c08b013567ffffffffffffffff811115612f0357612f02612340565b5b612f0f8d828e01612d91565b94505060e08b013567ffffffffffffffff811115612f3057612f2f612340565b5b612f3c8d828e01612d91565b9350506101008b013567ffffffffffffffff811115612f5e57612f5d612340565b5b612f6a8d828e01612d91565b925050610120612f7c8d828e01612dd6565b9150509295989b9194979a5092959850565b60008060008060008060008060006101208a8c031215612fb157612fb061233b565b5b6000612fbf8c828d0161238e565b99505060208a013567ffffffffffffffff811115612fe057612fdf612340565b5b612fec8c828d01612d91565b98505060408a013567ffffffffffffffff81111561300d5761300c612340565b5b6130198c828d01612d91565b97505060608a013567ffffffffffffffff81111561303a57613039612340565b5b6130468c828d01612d91565b96505060808a013567ffffffffffffffff81111561306757613066612340565b5b6130738c828d01612d91565b95505060a08a013567ffffffffffffffff81111561309457613093612340565b5b6130a08c828d01612d91565b94505060c08a013567ffffffffffffffff8111156130c1576130c0612340565b5b6130cd8c828d01612d91565b93505060e08a013567ffffffffffffffff8111156130ee576130ed612340565b5b6130fa8c828d01612d91565b92505061010061310c8c828d01612dd6565b9150509295985092959850929598565b7f4e487b7100000000000000000000000000000000000000000000000000000000600052602260045260246000fd5b6000600282049050600182168061316357607f821691505b6020821081036131765761317561311c565b5b50919050565b60008151905061318b81612dbf565b92915050565b6000602082840312156131a7576131a661233b565b5b60006131b58482850161317c565b91505092915050565b7f48616e79612061646d696e206174617520646f6b7465722079616e672064696960008201527f7a696e6b616e20756e74756b206d656e67616b7365732e000000000000000000602082015250565b600061321a603783612424565b9150613225826131be565b604082019050919050565b600060208201905081810360008301526132498161320d565b9050919050565b7f4e487b7100000000000000000000000000000000000000000000000000000000600052603260045260246000fd5b7f4e487b7100000000000000000000000000000000000000000000000000000000600052601160045260246000fd5b60006132b9826123a3565b91507fffffffffffffffffffffffffffffffffffffffffffffffffffffffffffffffff82036132eb576132ea61327f565b5b600182019050919050565b7f48616e79612070656e6767756e61207465726461667461722079616e6720646960008201527f697a696e6b616e20756e74756b206d656e67616b7365732e0000000000000000602082015250565b6000613352603883612424565b915061335d826132f6565b604082019050919050565b6000602082019050818103600083015261338181613345565b9050919050565b7f48616e79612070617369656e2079616e67206469697a696e6b616e20756e747560008201527f6b206d656e67616b7365732e0000000000000000000000000000000000000000602082015250565b60006133e4602c83612424565b91506133ef82613388565b604082019050919050565b60006020820190508181036000830152613413816133d7565b9050919050565b7f526567697374726174696f6e2064617461206e6f7420666f756e640000000000600082015250565b6000613450601b83612424565b915061345b8261341a565b602082019050919050565b6000602082019050818103600083015261347f81613443565b9050919050565b60008190508160005260206000209050919050565b60006020601f8301049050919050565b600082821b905092915050565b6000600883026134e87fffffffffffffffffffffffffffffffffffffffffffffffffffffffffffffffff826134ab565b6134f286836134ab565b95508019841693508086168417925050509392505050565b600061352561352061351b846123a3565b6128b8565b6123a3565b9050919050565b6000819050919050565b61353f8361350a565b61355361354b8261352c565b8484546134b8565b825550505050565b600090565b61356861355b565b613573818484613536565b505050565b5b818110156135975761358c600082613560565b600181019050613579565b5050565b601f8211156135dc576135ad81613486565b6135b68461349b565b810160208510156135c5578190505b6135d96135d18561349b565b830182613578565b50505b505050565b600082821c905092915050565b60006135ff600019846008026135e1565b1980831691505092915050565b600061361883836135ee565b9150826002028217905092915050565b61363182612419565b67ffffffffffffffff81111561364a57613649612c94565b5b613654825461314b565b61365f82828561359b565b600060209050601f8311600181146136925760008415613680578287015190505b61368a858261360c565b8655506136f2565b601f1984166136a086613486565b60005b828110156136c8578489015182556001820191506020850194506020810190506136a3565b868310156136e557848901516136e1601f8916826135ee565b8355505b6001600288020188555050505b50505050505056fea2646970667358221220b9d5c596fe0dba94249970320fa1d62921e4eff800f4a022eebb4d3b3f041d1964736f6c63430008110033",
  "linkReferences": {},
  "deployedLinkReferences": {}
}