{
  "_format": "hh-sol-artifact-1",
  "contractName": "ConsultationRegist",
  "sourceName": "contracts/registration.sol",
  "abi": [
    {
      "inputs": [
        {
          "internalType": "address",
          "name": "_rolesContractAddress",
          "type": "address"
        }
      ],
      "stateMutability": "nonpayable",
      "type": "constructor"
    },
    {
      "inputs": [
        {
          "internalType": "uint256",
          "name": "",
          "type": "uint256"
        }
      ],
      "name": "accountsWithRegistrations",
      "outputs": [
        {
          "internalType": "address",
          "name": "",
          "type": "address"
        }
      ],
      "stateMutability": "view",
      "type": "function"
    },
    {
      "inputs": [
        {
          "internalType": "address",
          "name": "_wallet",
          "type": "address"
        },
        {
          "internalType": "string",
          "name": "_nama",
          "type": "string"
        },
        {
          "internalType": "string",
          "name": "_telepon",
          "type": "string"
        },
        {
          "internalType": "string",
          "name": "_namaDokter",
          "type": "string"
        },
        {
          "internalType": "string",
          "name": "_sesi",
          "type": "string"
        },
        {
          "internalType": "string",
          "name": "_tanggal",
          "type": "string"
        },
        {
          "internalType": "string",
          "name": "_keluhan",
          "type": "string"
        },
        {
          "internalType": "string",
          "name": "_gender",
          "type": "string"
        }
      ],
      "name": "addRegistration",
      "outputs": [],
      "stateMutability": "nonpayable",
      "type": "function"
    },
    {
      "inputs": [],
      "name": "getAllRegistrations",
      "outputs": [
        {
          "components": [
            {
              "internalType": "string",
              "name": "nama",
              "type": "string"
            },
            {
              "internalType": "string",
              "name": "telepon",
              "type": "string"
            },
            {
              "internalType": "string",
              "name": "namaDokter",
              "type": "string"
            },
            {
              "internalType": "string",
              "name": "sesi",
              "type": "string"
            },
            {
              "internalType": "string",
              "name": "tanggal",
              "type": "string"
            },
            {
              "internalType": "string",
              "name": "keluhan",
              "type": "string"
            },
            {
              "internalType": "string",
              "name": "gender",
              "type": "string"
            },
            {
              "internalType": "address",
              "name": "wallet",
              "type": "address"
            }
          ],
          "internalType": "struct ConsultationRegist.Data[][]",
          "name": "",
          "type": "tuple[][]"
        }
      ],
      "stateMutability": "view",
      "type": "function"
    },
    {
      "inputs": [],
      "name": "getRegistrationEvidence",
      "outputs": [
        {
          "components": [
            {
              "internalType": "string",
              "name": "nama",
              "type": "string"
            },
            {
              "internalType": "string",
              "name": "telepon",
              "type": "string"
            },
            {
              "internalType": "string",
              "name": "namaDokter",
              "type": "string"
            },
            {
              "internalType": "string",
              "name": "sesi",
              "type": "string"
            },
            {
              "internalType": "string",
              "name": "tanggal",
              "type": "string"
            },
            {
              "internalType": "string",
              "name": "keluhan",
              "type": "string"
            },
            {
              "internalType": "string",
              "name": "gender",
              "type": "string"
            },
            {
              "internalType": "address",
              "name": "wallet",
              "type": "address"
            }
          ],
          "internalType": "struct ConsultationRegist.Data[]",
          "name": "",
          "type": "tuple[]"
        }
      ],
      "stateMutability": "view",
      "type": "function"
    },
    {
      "inputs": [],
      "name": "registrationCount",
      "outputs": [
        {
          "internalType": "uint256",
          "name": "",
          "type": "uint256"
        }
      ],
      "stateMutability": "view",
      "type": "function"
    },
    {
      "inputs": [
        {
          "internalType": "address",
          "name": "",
          "type": "address"
        },
        {
          "internalType": "uint256",
          "name": "",
          "type": "uint256"
        }
      ],
      "name": "registrations",
      "outputs": [
        {
          "internalType": "string",
          "name": "nama",
          "type": "string"
        },
        {
          "internalType": "string",
          "name": "telepon",
          "type": "string"
        },
        {
          "internalType": "string",
          "name": "namaDokter",
          "type": "string"
        },
        {
          "internalType": "string",
          "name": "sesi",
          "type": "string"
        },
        {
          "internalType": "string",
          "name": "tanggal",
          "type": "string"
        },
        {
          "internalType": "string",
          "name": "keluhan",
          "type": "string"
        },
        {
          "internalType": "string",
          "name": "gender",
          "type": "string"
        },
        {
          "internalType": "address",
          "name": "wallet",
          "type": "address"
        }
      ],
      "stateMutability": "view",
      "type": "function"
    },
    {
      "inputs": [],
      "name": "roles",
      "outputs": [
        {
          "internalType": "contract UserRoles",
          "name": "",
          "type": "address"
        }
      ],
      "stateMutability": "view",
      "type": "function"
    }
  ],
  "bytecode": "0x60806040523480156200001157600080fd5b50604051620027fe380380620027fe8339818101604052810190620000379190620000e8565b806000806101000a81548173ffffffffffffffffffffffffffffffffffffffff021916908373ffffffffffffffffffffffffffffffffffffffff160217905550506200011a565b600080fd5b600073ffffffffffffffffffffffffffffffffffffffff82169050919050565b6000620000b08262000083565b9050919050565b620000c281620000a3565b8114620000ce57600080fd5b50565b600081519050620000e281620000b7565b92915050565b6000602082840312156200010157620001006200007e565b5b60006200011184828501620000d1565b91505092915050565b6126d4806200012a6000396000f3fe608060405234801561001057600080fd5b506004361061007d5760003560e01c8063337c9ba61161005b578063337c9ba6146100f5578063392f5f641461011157806346b5bef11461012f578063c996b7cc1461015f5761007d565b806309052679146100825780630c38af4a146100b95780630d3eafd6146100d7575b600080fd5b61009c6004803603810190610097919061185f565b61017d565b6040516100b098979695949392919061193e565b60405180910390f35b6100c16105ba565b6040516100ce9190611ca4565b60405180910390f35b6100df610cff565b6040516100ec9190611cd5565b60405180910390f35b61010f600480360381019061010a9190611e25565b610d05565b005b61011961118a565b6040516101269190611ffe565b60405180910390f35b61014960048036038101906101449190612019565b6111ae565b6040516101569190612046565b60405180910390f35b6101676111ed565b60405161017491906120e7565b60405180910390f35b6001602052816000526040600020818154811061019957600080fd5b9060005260206000209060080201600091509150508060000180546101bd90612138565b80601f01602080910402602001604051908101604052809291908181526020018280546101e990612138565b80156102365780601f1061020b57610100808354040283529160200191610236565b820191906000526020600020905b81548152906001019060200180831161021957829003601f168201915b50505050509080600101805461024b90612138565b80601f016020809104026020016040519081016040528092919081815260200182805461027790612138565b80156102c45780601f10610299576101008083540402835291602001916102c4565b820191906000526020600020905b8154815290600101906020018083116102a757829003601f168201915b5050505050908060020180546102d990612138565b80601f016020809104026020016040519081016040528092919081815260200182805461030590612138565b80156103525780601f1061032757610100808354040283529160200191610352565b820191906000526020600020905b81548152906001019060200180831161033557829003601f168201915b50505050509080600301805461036790612138565b80601f016020809104026020016040519081016040528092919081815260200182805461039390612138565b80156103e05780601f106103b5576101008083540402835291602001916103e0565b820191906000526020600020905b8154815290600101906020018083116103c357829003601f168201915b5050505050908060040180546103f590612138565b80601f016020809104026020016040519081016040528092919081815260200182805461042190612138565b801561046e5780601f106104435761010080835404028352916020019161046e565b820191906000526020600020905b81548152906001019060200180831161045157829003601f168201915b50505050509080600501805461048390612138565b80601f01602080910402602001604051908101604052809291908181526020018280546104af90612138565b80156104fc5780601f106104d1576101008083540402835291602001916104fc565b820191906000526020600020905b8154815290600101906020018083116104df57829003601f168201915b50505050509080600601805461051190612138565b80601f016020809104026020016040519081016040528092919081815260200182805461053d90612138565b801561058a5780601f1061055f5761010080835404028352916020019161058a565b820191906000526020600020905b81548152906001019060200180831161056d57829003601f168201915b5050505050908060070160009054906101000a900473ffffffffffffffffffffffffffffffffffffffff16905088565b606060008054906101000a900473ffffffffffffffffffffffffffffffffffffffff1673ffffffffffffffffffffffffffffffffffffffff166324d7806c336040518263ffffffff1660e01b81526004016106159190612046565b602060405180830381865afa158015610632573d6000803e3d6000fd5b505050506040513d601f19601f8201168201806040525081019061065691906121a1565b806106f7575060008054906101000a900473ffffffffffffffffffffffffffffffffffffffff1673ffffffffffffffffffffffffffffffffffffffff16635c4c9348336040518263ffffffff1660e01b81526004016106b59190612046565b602060405180830381865afa1580156106d2573d6000803e3d6000fd5b505050506040513d601f19601f820116820180604052508101906106f691906121a1565b5b610736576040517f08c379a000000000000000000000000000000000000000000000000000000000815260040161072d90612240565b60405180910390fd5b6000600280549050905060008167ffffffffffffffff81111561075c5761075b611cfa565b5b60405190808252806020026020018201604052801561078f57816020015b606081526020019060019003908161077a5790505b50905060005b82811015610cf65760016000600283815481106107b5576107b4612260565b5b9060005260206000200160009054906101000a900473ffffffffffffffffffffffffffffffffffffffff1673ffffffffffffffffffffffffffffffffffffffff1673ffffffffffffffffffffffffffffffffffffffff168152602001908152602001600020805480602002602001604051908101604052809291908181526020016000905b82821015610cc157838290600052602060002090600802016040518061010001604052908160008201805461086e90612138565b80601f016020809104026020016040519081016040528092919081815260200182805461089a90612138565b80156108e75780601f106108bc576101008083540402835291602001916108e7565b820191906000526020600020905b8154815290600101906020018083116108ca57829003601f168201915b5050505050815260200160018201805461090090612138565b80601f016020809104026020016040519081016040528092919081815260200182805461092c90612138565b80156109795780601f1061094e57610100808354040283529160200191610979565b820191906000526020600020905b81548152906001019060200180831161095c57829003601f168201915b5050505050815260200160028201805461099290612138565b80601f01602080910402602001604051908101604052809291908181526020018280546109be90612138565b8015610a0b5780601f106109e057610100808354040283529160200191610a0b565b820191906000526020600020905b8154815290600101906020018083116109ee57829003601f168201915b50505050508152602001600382018054610a2490612138565b80601f0160208091040260200160405190810160405280929190818152602001828054610a5090612138565b8015610a9d5780601f10610a7257610100808354040283529160200191610a9d565b820191906000526020600020905b815481529060010190602001808311610a8057829003601f168201915b50505050508152602001600482018054610ab690612138565b80601f0160208091040260200160405190810160405280929190818152602001828054610ae290612138565b8015610b2f5780601f10610b0457610100808354040283529160200191610b2f565b820191906000526020600020905b815481529060010190602001808311610b1257829003601f168201915b50505050508152602001600582018054610b4890612138565b80601f0160208091040260200160405190810160405280929190818152602001828054610b7490612138565b8015610bc15780601f10610b9657610100808354040283529160200191610bc1565b820191906000526020600020905b815481529060010190602001808311610ba457829003601f168201915b50505050508152602001600682018054610bda90612138565b80601f0160208091040260200160405190810160405280929190818152602001828054610c0690612138565b8015610c535780601f10610c2857610100808354040283529160200191610c53565b820191906000526020600020905b815481529060010190602001808311610c3657829003601f168201915b505050505081526020016007820160009054906101000a900473ffffffffffffffffffffffffffffffffffffffff1673ffffffffffffffffffffffffffffffffffffffff1673ffffffffffffffffffffffffffffffffffffffff16815250508152602001906001019061083a565b50505050828281518110610cd857610cd7612260565b5b60200260200101819052508080610cee906122be565b915050610795565b50809250505090565b60035481565b60008054906101000a900473ffffffffffffffffffffffffffffffffffffffff1673ffffffffffffffffffffffffffffffffffffffff166324d7806c336040518263ffffffff1660e01b8152600401610d5e9190612046565b602060405180830381865afa158015610d7b573d6000803e3d6000fd5b505050506040513d601f19601f82011682018060405250810190610d9f91906121a1565b80610e40575060008054906101000a900473ffffffffffffffffffffffffffffffffffffffff1673ffffffffffffffffffffffffffffffffffffffff16635c4c9348336040518263ffffffff1660e01b8152600401610dfe9190612046565b602060405180830381865afa158015610e1b573d6000803e3d6000fd5b505050506040513d601f19601f82011682018060405250810190610e3f91906121a1565b5b80610ee1575060008054906101000a900473ffffffffffffffffffffffffffffffffffffffff1673ffffffffffffffffffffffffffffffffffffffff16631132beb5336040518263ffffffff1660e01b8152600401610e9f9190612046565b602060405180830381865afa158015610ebc573d6000803e3d6000fd5b505050506040513d601f19601f82011682018060405250810190610ee091906121a1565b5b610f20576040517f08c379a0000000000000000000000000000000000000000000000000000000008152600401610f1790612378565b60405180910390fd5b600160008973ffffffffffffffffffffffffffffffffffffffff1673ffffffffffffffffffffffffffffffffffffffff1681526020019081526020016000206040518061010001604052808981526020018881526020018781526020018681526020018581526020018481526020018381526020018a73ffffffffffffffffffffffffffffffffffffffff1681525090806001815401808255809150506001900390600052602060002090600802016000909190919091506000820151816000019081610fed919061253a565b506020820151816001019081611003919061253a565b506040820151816002019081611019919061253a565b50606082015181600301908161102f919061253a565b506080820151816004019081611045919061253a565b5060a082015181600501908161105b919061253a565b5060c0820151816006019081611071919061253a565b5060e08201518160070160006101000a81548173ffffffffffffffffffffffffffffffffffffffff021916908373ffffffffffffffffffffffffffffffffffffffff160217905550505060018060008a73ffffffffffffffffffffffffffffffffffffffff1673ffffffffffffffffffffffffffffffffffffffff1681526020019081526020016000208054905003611168576002889080600181540180825580915050600190039060005260206000200160009091909190916101000a81548173ffffffffffffffffffffffffffffffffffffffff021916908373ffffffffffffffffffffffffffffffffffffffff1602179055505b6003600081548092919061117b906122be565b91905055505050505050505050565b60008054906101000a900473ffffffffffffffffffffffffffffffffffffffff1681565b600281815481106111be57600080fd5b906000526020600020016000915054906101000a900473ffffffffffffffffffffffffffffffffffffffff1681565b606060008054906101000a900473ffffffffffffffffffffffffffffffffffffffff1673ffffffffffffffffffffffffffffffffffffffff16631132beb5336040518263ffffffff1660e01b81526004016112489190612046565b602060405180830381865afa158015611265573d6000803e3d6000fd5b505050506040513d601f19601f8201168201806040525081019061128991906121a1565b6112c8576040517f08c379a00000000000000000000000000000000000000000000000000000000081526004016112bf9061267e565b60405180910390fd5b600160003373ffffffffffffffffffffffffffffffffffffffff1673ffffffffffffffffffffffffffffffffffffffff168152602001908152602001600020805480602002602001604051908101604052809291908181526020016000905b828210156117ae57838290600052602060002090600802016040518061010001604052908160008201805461135b90612138565b80601f016020809104026020016040519081016040528092919081815260200182805461138790612138565b80156113d45780601f106113a9576101008083540402835291602001916113d4565b820191906000526020600020905b8154815290600101906020018083116113b757829003601f168201915b505050505081526020016001820180546113ed90612138565b80601f016020809104026020016040519081016040528092919081815260200182805461141990612138565b80156114665780601f1061143b57610100808354040283529160200191611466565b820191906000526020600020905b81548152906001019060200180831161144957829003601f168201915b5050505050815260200160028201805461147f90612138565b80601f01602080910402602001604051908101604052809291908181526020018280546114ab90612138565b80156114f85780601f106114cd576101008083540402835291602001916114f8565b820191906000526020600020905b8154815290600101906020018083116114db57829003601f168201915b5050505050815260200160038201805461151190612138565b80601f016020809104026020016040519081016040528092919081815260200182805461153d90612138565b801561158a5780601f1061155f5761010080835404028352916020019161158a565b820191906000526020600020905b81548152906001019060200180831161156d57829003601f168201915b505050505081526020016004820180546115a390612138565b80601f01602080910402602001604051908101604052809291908181526020018280546115cf90612138565b801561161c5780601f106115f15761010080835404028352916020019161161c565b820191906000526020600020905b8154815290600101906020018083116115ff57829003601f168201915b5050505050815260200160058201805461163590612138565b80601f016020809104026020016040519081016040528092919081815260200182805461166190612138565b80156116ae5780601f10611683576101008083540402835291602001916116ae565b820191906000526020600020905b81548152906001019060200180831161169157829003601f168201915b505050505081526020016006820180546116c790612138565b80601f01602080910402602001604051908101604052809291908181526020018280546116f390612138565b80156117405780601f1061171557610100808354040283529160200191611740565b820191906000526020600020905b81548152906001019060200180831161172357829003601f168201915b505050505081526020016007820160009054906101000a900473ffffffffffffffffffffffffffffffffffffffff1673ffffffffffffffffffffffffffffffffffffffff1673ffffffffffffffffffffffffffffffffffffffff168152505081526020019060010190611327565b50505050905090565b6000604051905090565b600080fd5b600080fd5b600073ffffffffffffffffffffffffffffffffffffffff82169050919050565b60006117f6826117cb565b9050919050565b611806816117eb565b811461181157600080fd5b50565b600081359050611823816117fd565b92915050565b6000819050919050565b61183c81611829565b811461184757600080fd5b50565b60008135905061185981611833565b92915050565b60008060408385031215611876576118756117c1565b5b600061188485828601611814565b92505060206118958582860161184a565b9150509250929050565b600081519050919050565b600082825260208201905092915050565b60005b838110156118d95780820151818401526020810190506118be565b60008484015250505050565b6000601f19601f8301169050919050565b60006119018261189f565b61190b81856118aa565b935061191b8185602086016118bb565b611924816118e5565b840191505092915050565b611938816117eb565b82525050565b6000610100820190508181036000830152611959818b6118f6565b9050818103602083015261196d818a6118f6565b9050818103604083015261198181896118f6565b9050818103606083015261199581886118f6565b905081810360808301526119a981876118f6565b905081810360a08301526119bd81866118f6565b905081810360c08301526119d181856118f6565b90506119e060e083018461192f565b9998505050505050505050565b600081519050919050565b600082825260208201905092915050565b6000819050602082019050919050565b600081519050919050565b600082825260208201905092915050565b6000819050602082019050919050565b600082825260208201905092915050565b6000611a618261189f565b611a6b8185611a45565b9350611a7b8185602086016118bb565b611a84816118e5565b840191505092915050565b611a98816117eb565b82525050565b6000610100830160008301518482036000860152611abc8282611a56565b91505060208301518482036020860152611ad68282611a56565b91505060408301518482036040860152611af08282611a56565b91505060608301518482036060860152611b0a8282611a56565b91505060808301518482036080860152611b248282611a56565b91505060a083015184820360a0860152611b3e8282611a56565b91505060c083015184820360c0860152611b588282611a56565b91505060e0830151611b6d60e0860182611a8f565b508091505092915050565b6000611b848383611a9e565b905092915050565b6000602082019050919050565b6000611ba482611a19565b611bae8185611a24565b935083602082028501611bc085611a35565b8060005b85811015611bfc5784840389528151611bdd8582611b78565b9450611be883611b8c565b925060208a01995050600181019050611bc4565b50829750879550505050505092915050565b6000611c1a8383611b99565b905092915050565b6000602082019050919050565b6000611c3a826119ed565b611c4481856119f8565b935083602082028501611c5685611a09565b8060005b85811015611c925784840389528151611c738582611c0e565b9450611c7e83611c22565b925060208a01995050600181019050611c5a565b50829750879550505050505092915050565b60006020820190508181036000830152611cbe8184611c2f565b905092915050565b611ccf81611829565b82525050565b6000602082019050611cea6000830184611cc6565b92915050565b600080fd5b600080fd5b7f4e487b7100000000000000000000000000000000000000000000000000000000600052604160045260246000fd5b611d32826118e5565b810181811067ffffffffffffffff82111715611d5157611d50611cfa565b5b80604052505050565b6000611d646117b7565b9050611d708282611d29565b919050565b600067ffffffffffffffff821115611d9057611d8f611cfa565b5b611d99826118e5565b9050602081019050919050565b82818337600083830152505050565b6000611dc8611dc384611d75565b611d5a565b905082815260208101848484011115611de457611de3611cf5565b5b611def848285611da6565b509392505050565b600082601f830112611e0c57611e0b611cf0565b5b8135611e1c848260208601611db5565b91505092915050565b600080600080600080600080610100898b031215611e4657611e456117c1565b5b6000611e548b828c01611814565b985050602089013567ffffffffffffffff811115611e7557611e746117c6565b5b611e818b828c01611df7565b975050604089013567ffffffffffffffff811115611ea257611ea16117c6565b5b611eae8b828c01611df7565b965050606089013567ffffffffffffffff811115611ecf57611ece6117c6565b5b611edb8b828c01611df7565b955050608089013567ffffffffffffffff811115611efc57611efb6117c6565b5b611f088b828c01611df7565b94505060a089013567ffffffffffffffff811115611f2957611f286117c6565b5b611f358b828c01611df7565b93505060c089013567ffffffffffffffff811115611f5657611f556117c6565b5b611f628b828c01611df7565b92505060e089013567ffffffffffffffff811115611f8357611f826117c6565b5b611f8f8b828c01611df7565b9150509295985092959890939650565b6000819050919050565b6000611fc4611fbf611fba846117cb565b611f9f565b6117cb565b9050919050565b6000611fd682611fa9565b9050919050565b6000611fe882611fcb565b9050919050565b611ff881611fdd565b82525050565b60006020820190506120136000830184611fef565b92915050565b60006020828403121561202f5761202e6117c1565b5b600061203d8482850161184a565b91505092915050565b600060208201905061205b600083018461192f565b92915050565b600082825260208201905092915050565b600061207d82611a19565b6120878185612061565b93508360208202850161209985611a35565b8060005b858110156120d557848403895281516120b68582611b78565b94506120c183611b8c565b925060208a0199505060018101905061209d565b50829750879550505050505092915050565b600060208201905081810360008301526121018184612072565b905092915050565b7f4e487b7100000000000000000000000000000000000000000000000000000000600052602260045260246000fd5b6000600282049050600182168061215057607f821691505b60208210810361216357612162612109565b5b50919050565b60008115159050919050565b61217e81612169565b811461218957600080fd5b50565b60008151905061219b81612175565b92915050565b6000602082840312156121b7576121b66117c1565b5b60006121c58482850161218c565b91505092915050565b7f48616e79612061646d696e206174617520646f6b7465722079616e672064696960008201527f7a696e6b616e20756e74756b206d656e67616b7365732e000000000000000000602082015250565b600061222a6037836118aa565b9150612235826121ce565b604082019050919050565b600060208201905081810360008301526122598161221d565b9050919050565b7f4e487b7100000000000000000000000000000000000000000000000000000000600052603260045260246000fd5b7f4e487b7100000000000000000000000000000000000000000000000000000000600052601160045260246000fd5b60006122c982611829565b91507fffffffffffffffffffffffffffffffffffffffffffffffffffffffffffffffff82036122fb576122fa61228f565b5b600182019050919050565b7f48616e79612070656e6767756e61207465726461667461722079616e6720646960008201527f697a696e6b616e20756e74756b206d656e67616b7365732e0000000000000000602082015250565b60006123626038836118aa565b915061236d82612306565b604082019050919050565b6000602082019050818103600083015261239181612355565b9050919050565b60008190508160005260206000209050919050565b60006020601f8301049050919050565b600082821b905092915050565b6000600883026123fa7fffffffffffffffffffffffffffffffffffffffffffffffffffffffffffffffff826123bd565b61240486836123bd565b95508019841693508086168417925050509392505050565b600061243761243261242d84611829565b611f9f565b611829565b9050919050565b6000819050919050565b6124518361241c565b61246561245d8261243e565b8484546123ca565b825550505050565b600090565b61247a61246d565b612485818484612448565b505050565b5b818110156124a95761249e600082612472565b60018101905061248b565b5050565b601f8211156124ee576124bf81612398565b6124c8846123ad565b810160208510156124d7578190505b6124eb6124e3856123ad565b83018261248a565b50505b505050565b600082821c905092915050565b6000612511600019846008026124f3565b1980831691505092915050565b600061252a8383612500565b9150826002028217905092915050565b6125438261189f565b67ffffffffffffffff81111561255c5761255b611cfa565b5b6125668254612138565b6125718282856124ad565b600060209050601f8311600181146125a45760008415612592578287015190505b61259c858261251e565b865550612604565b601f1984166125b286612398565b60005b828110156125da578489015182556001820191506020850194506020810190506125b5565b868310156125f757848901516125f3601f891682612500565b8355505b6001600288020188555050505b505050505050565b7f48616e79612070617369656e2079616e67206469697a696e6b616e20756e747560008201527f6b206d656e67616b7365732e0000000000000000000000000000000000000000602082015250565b6000612668602c836118aa565b91506126738261260c565b604082019050919050565b600060208201905081810360008301526126978161265b565b905091905056fea26469706673582212203d3ccdeba43d5105dad55869d6cddd6e2576548f90ec7e7cf63a12f1fcb2bc7064736f6c63430008110033",
  "linkReferences": {},
  "deployedLinkReferences": {}
}