{
  "_format": "hh-sol-artifact-1",
  "contractName": "UserData",
  "sourceName": "contracts/user.sol",
  "abi": [
    {
      "inputs": [
        {
          "internalType": "address",
          "name": "_rolesContractAddress",
          "type": "address"
        }
      ],
      "stateMutability": "nonpayable",
      "type": "constructor"
    },
    {
      "anonymous": false,
      "inputs": [
        {
          "indexed": false,
          "internalType": "string",
          "name": "nama",
          "type": "string"
        },
        {
          "indexed": false,
          "internalType": "string",
          "name": "email",
          "type": "string"
        },
        {
          "indexed": false,
          "internalType": "string",
          "name": "telepon",
          "type": "string"
        },
        {
          "indexed": false,
          "internalType": "string",
          "name": "hari",
          "type": "string"
        },
        {
          "indexed": false,
          "internalType": "string",
          "name": "sesi",
          "type": "string"
        },
        {
          "indexed": false,
          "internalType": "string",
          "name": "pendidikan",
          "type": "string"
        },
        {
          "indexed": false,
          "internalType": "string",
          "name": "str",
          "type": "string"
        },
        {
          "indexed": false,
          "internalType": "string",
          "name": "cat",
          "type": "string"
        },
        {
          "indexed": false,
          "internalType": "string",
          "name": "img",
          "type": "string"
        },
        {
          "indexed": false,
          "internalType": "address",
          "name": "wallet",
          "type": "address"
        },
        {
          "indexed": false,
          "internalType": "bool",
          "name": "status",
          "type": "bool"
        }
      ],
      "name": "DoctorAdded",
      "type": "event"
    },
    {
      "anonymous": false,
      "inputs": [
        {
          "indexed": false,
          "internalType": "string",
          "name": "nama",
          "type": "string"
        },
        {
          "indexed": false,
          "internalType": "string",
          "name": "email",
          "type": "string"
        },
        {
          "indexed": false,
          "internalType": "string",
          "name": "telepon",
          "type": "string"
        },
        {
          "indexed": false,
          "internalType": "string",
          "name": "gender",
          "type": "string"
        },
        {
          "indexed": false,
          "internalType": "string",
          "name": "tanggalLahir",
          "type": "string"
        },
        {
          "indexed": false,
          "internalType": "address",
          "name": "wallet",
          "type": "address"
        },
        {
          "indexed": false,
          "internalType": "bool",
          "name": "status",
          "type": "bool"
        }
      ],
      "name": "UserAdded",
      "type": "event"
    },
    {
      "inputs": [
        {
          "internalType": "string",
          "name": "_nama",
          "type": "string"
        },
        {
          "internalType": "string",
          "name": "_email",
          "type": "string"
        },
        {
          "internalType": "string",
          "name": "_telepon",
          "type": "string"
        },
        {
          "internalType": "string",
          "name": "_hari",
          "type": "string"
        },
        {
          "internalType": "string",
          "name": "_sesi",
          "type": "string"
        },
        {
          "internalType": "string",
          "name": "_pendidikan",
          "type": "string"
        },
        {
          "internalType": "string",
          "name": "_str",
          "type": "string"
        },
        {
          "internalType": "string",
          "name": "_cat",
          "type": "string"
        },
        {
          "internalType": "string",
          "name": "_img",
          "type": "string"
        },
        {
          "internalType": "address",
          "name": "_wallet",
          "type": "address"
        },
        {
          "internalType": "bool",
          "name": "_status",
          "type": "bool"
        }
      ],
      "name": "addDoctor",
      "outputs": [],
      "stateMutability": "nonpayable",
      "type": "function"
    },
    {
      "inputs": [
        {
          "internalType": "string",
          "name": "_nama",
          "type": "string"
        },
        {
          "internalType": "string",
          "name": "_email",
          "type": "string"
        },
        {
          "internalType": "string",
          "name": "_telepon",
          "type": "string"
        },
        {
          "internalType": "string",
          "name": "_gender",
          "type": "string"
        },
        {
          "internalType": "string",
          "name": "_tanggalLahir",
          "type": "string"
        },
        {
          "internalType": "bool",
          "name": "_status",
          "type": "bool"
        }
      ],
      "name": "addUser",
      "outputs": [],
      "stateMutability": "nonpayable",
      "type": "function"
    },
    {
      "inputs": [
        {
          "internalType": "address",
          "name": "_wallet",
          "type": "address"
        },
        {
          "internalType": "string",
          "name": "_nama",
          "type": "string"
        },
        {
          "internalType": "string",
          "name": "_email",
          "type": "string"
        },
        {
          "internalType": "string",
          "name": "_telepon",
          "type": "string"
        },
        {
          "internalType": "string",
          "name": "_gender",
          "type": "string"
        },
        {
          "internalType": "string",
          "name": "_tanggalLahir",
          "type": "string"
        },
        {
          "internalType": "bool",
          "name": "_status",
          "type": "bool"
        }
      ],
      "name": "addUserAdmin",
      "outputs": [],
      "stateMutability": "nonpayable",
      "type": "function"
    },
    {
      "inputs": [
        {
          "internalType": "uint256",
          "name": "",
          "type": "uint256"
        }
      ],
      "name": "doctors",
      "outputs": [
        {
          "internalType": "string",
          "name": "nama",
          "type": "string"
        },
        {
          "internalType": "string",
          "name": "email",
          "type": "string"
        },
        {
          "internalType": "string",
          "name": "telepon",
          "type": "string"
        },
        {
          "internalType": "string",
          "name": "hari",
          "type": "string"
        },
        {
          "internalType": "string",
          "name": "sesi",
          "type": "string"
        },
        {
          "internalType": "string",
          "name": "pendidikan",
          "type": "string"
        },
        {
          "internalType": "string",
          "name": "str",
          "type": "string"
        },
        {
          "internalType": "string",
          "name": "cat",
          "type": "string"
        },
        {
          "internalType": "string",
          "name": "img",
          "type": "string"
        },
        {
          "internalType": "address",
          "name": "wallet",
          "type": "address"
        },
        {
          "internalType": "bool",
          "name": "status",
          "type": "bool"
        }
      ],
      "stateMutability": "view",
      "type": "function"
    },
    {
      "inputs": [],
      "name": "getDoctors",
      "outputs": [
        {
          "components": [
            {
              "internalType": "string",
              "name": "nama",
              "type": "string"
            },
            {
              "internalType": "string",
              "name": "email",
              "type": "string"
            },
            {
              "internalType": "string",
              "name": "telepon",
              "type": "string"
            },
            {
              "internalType": "string",
              "name": "hari",
              "type": "string"
            },
            {
              "internalType": "string",
              "name": "sesi",
              "type": "string"
            },
            {
              "internalType": "string",
              "name": "pendidikan",
              "type": "string"
            },
            {
              "internalType": "string",
              "name": "str",
              "type": "string"
            },
            {
              "internalType": "string",
              "name": "cat",
              "type": "string"
            },
            {
              "internalType": "string",
              "name": "img",
              "type": "string"
            },
            {
              "internalType": "address",
              "name": "wallet",
              "type": "address"
            },
            {
              "internalType": "bool",
              "name": "status",
              "type": "bool"
            }
          ],
          "internalType": "struct UserData.Doctor[]",
          "name": "",
          "type": "tuple[]"
        }
      ],
      "stateMutability": "view",
      "type": "function"
    },
    {
      "inputs": [
        {
          "internalType": "address",
          "name": "_wallet",
          "type": "address"
        }
      ],
      "name": "getUser",
      "outputs": [
        {
          "internalType": "address",
          "name": "",
          "type": "address"
        },
        {
          "internalType": "string",
          "name": "",
          "type": "string"
        },
        {
          "internalType": "string",
          "name": "",
          "type": "string"
        },
        {
          "internalType": "string",
          "name": "",
          "type": "string"
        },
        {
          "internalType": "string",
          "name": "",
          "type": "string"
        },
        {
          "internalType": "string",
          "name": "",
          "type": "string"
        },
        {
          "internalType": "bool",
          "name": "",
          "type": "bool"
        }
      ],
      "stateMutability": "view",
      "type": "function"
    },
    {
      "inputs": [],
      "name": "getUserAdmin",
      "outputs": [
        {
          "components": [
            {
              "internalType": "string",
              "name": "nama",
              "type": "string"
            },
            {
              "internalType": "string",
              "name": "email",
              "type": "string"
            },
            {
              "internalType": "string",
              "name": "telepon",
              "type": "string"
            },
            {
              "internalType": "string",
              "name": "gender",
              "type": "string"
            },
            {
              "internalType": "string",
              "name": "tanggalLahir",
              "type": "string"
            },
            {
              "internalType": "address",
              "name": "wallet",
              "type": "address"
            },
            {
              "internalType": "bool",
              "name": "status",
              "type": "bool"
            }
          ],
          "internalType": "struct UserData.User[]",
          "name": "",
          "type": "tuple[]"
        }
      ],
      "stateMutability": "view",
      "type": "function"
    },
    {
      "inputs": [],
      "name": "roles",
      "outputs": [
        {
          "internalType": "contract UserRoles",
          "name": "",
          "type": "address"
        }
      ],
      "stateMutability": "view",
      "type": "function"
    },
    {
      "inputs": [
        {
          "internalType": "string",
          "name": "_nama",
          "type": "string"
        },
        {
          "internalType": "string",
          "name": "_email",
          "type": "string"
        },
        {
          "internalType": "string",
          "name": "_telepon",
          "type": "string"
        },
        {
          "internalType": "string",
          "name": "_hari",
          "type": "string"
        },
        {
          "internalType": "string",
          "name": "_sesi",
          "type": "string"
        },
        {
          "internalType": "string",
          "name": "_pendidikan",
          "type": "string"
        },
        {
          "internalType": "string",
          "name": "_str",
          "type": "string"
        },
        {
          "internalType": "string",
          "name": "_cat",
          "type": "string"
        },
        {
          "internalType": "string",
          "name": "_img",
          "type": "string"
        },
        {
          "internalType": "address",
          "name": "_wallet",
          "type": "address"
        },
        {
          "internalType": "bool",
          "name": "_status",
          "type": "bool"
        }
      ],
      "name": "updateDoctor",
      "outputs": [],
      "stateMutability": "nonpayable",
      "type": "function"
    },
    {
      "inputs": [
        {
          "internalType": "string",
          "name": "_nama",
          "type": "string"
        },
        {
          "internalType": "string",
          "name": "_email",
          "type": "string"
        },
        {
          "internalType": "string",
          "name": "_telepon",
          "type": "string"
        },
        {
          "internalType": "string",
          "name": "_gender",
          "type": "string"
        },
        {
          "internalType": "string",
          "name": "_tanggalLahir",
          "type": "string"
        },
        {
          "internalType": "bool",
          "name": "_status",
          "type": "bool"
        }
      ],
      "name": "updateUser",
      "outputs": [],
      "stateMutability": "nonpayable",
      "type": "function"
    },
    {
      "inputs": [
        {
          "internalType": "address",
          "name": "_wallet",
          "type": "address"
        },
        {
          "internalType": "string",
          "name": "_nama",
          "type": "string"
        },
        {
          "internalType": "string",
          "name": "_email",
          "type": "string"
        },
        {
          "internalType": "string",
          "name": "_telepon",
          "type": "string"
        },
        {
          "internalType": "string",
          "name": "_gender",
          "type": "string"
        },
        {
          "internalType": "string",
          "name": "_tanggalLahir",
          "type": "string"
        },
        {
          "internalType": "bool",
          "name": "_status",
          "type": "bool"
        }
      ],
      "name": "updateUserAdmin",
      "outputs": [],
      "stateMutability": "nonpayable",
      "type": "function"
    },
    {
      "inputs": [
        {
          "internalType": "uint256",
          "name": "",
          "type": "uint256"
        }
      ],
      "name": "users",
      "outputs": [
        {
          "internalType": "string",
          "name": "nama",
          "type": "string"
        },
        {
          "internalType": "string",
          "name": "email",
          "type": "string"
        },
        {
          "internalType": "string",
          "name": "telepon",
          "type": "string"
        },
        {
          "internalType": "string",
          "name": "gender",
          "type": "string"
        },
        {
          "internalType": "string",
          "name": "tanggalLahir",
          "type": "string"
        },
        {
          "internalType": "address",
          "name": "wallet",
          "type": "address"
        },
        {
          "internalType": "bool",
          "name": "status",
          "type": "bool"
        }
      ],
      "stateMutability": "view",
      "type": "function"
    }
  ],
  "bytecode": "0x60806040523480156200001157600080fd5b506040516200461b3803806200461b8339818101604052810190620000379190620000e8565b806000806101000a81548173ffffffffffffffffffffffffffffffffffffffff021916908373ffffffffffffffffffffffffffffffffffffffff160217905550506200011a565b600080fd5b600073ffffffffffffffffffffffffffffffffffffffff82169050919050565b6000620000b08262000083565b9050919050565b620000c281620000a3565b8114620000ce57600080fd5b50565b600081519050620000e281620000b7565b92915050565b6000602082840312156200010157620001006200007e565b5b60006200011184828501620000d1565b91505092915050565b6144f1806200012a6000396000f3fe608060405234801561001057600080fd5b50600436106100b45760003560e01c806374c6a8e41161007157806374c6a8e4146101b5578063b05cc910146101d3578063b13d5d94146101ef578063b6dda9331461020d578063ddcd539d14610229578063e21f3b7814610245576100b4565b80632e724fea146100b95780632edb8cf8146100d5578063365b98b2146100f1578063392f5f64146101275780636efb1b84146101455780636f77926b1461017f575b600080fd5b6100d360048036038101906100ce9190613219565b610261565b005b6100ef60048036038101906100ea9190613347565b6104fc565b005b61010b6004803603810190610106919061356d565b610817565b60405161011e9796959493929190613637565b60405180910390f35b61012f610b3e565b60405161013c9190613728565b60405180910390f35b61015f600480360381019061015a919061356d565b610b62565b6040516101769b9a99989796959493929190613743565b60405180910390f35b6101996004803603810190610194919061382d565b6110c1565b6040516101ac979695949392919061385a565b60405180910390f35b6101bd6117f9565b6040516101ca9190613ace565b60405180910390f35b6101ed60048036038101906101e89190613347565b611c9f565b005b6101f7612097565b6040516102049190613cd9565b60405180910390f35b61022760048036038101906102229190613cfb565b6128a5565b005b610243600480360381019061023e9190613cfb565b612a43565b005b61025f600480360381019061025a9190613219565b612d01565b005b60008054906101000a900473ffffffffffffffffffffffffffffffffffffffff1673ffffffffffffffffffffffffffffffffffffffff1663f851a4406040518163ffffffff1660e01b8152600401602060405180830381865afa1580156102cc573d6000803e3d6000fd5b505050506040513d601f19601f820116820180604052508101906102f09190613e29565b73ffffffffffffffffffffffffffffffffffffffff163373ffffffffffffffffffffffffffffffffffffffff161461035d576040517f08c379a000000000000000000000000000000000000000000000000000000000815260040161035490613ec8565b60405180910390fd5b60006040518060e001604052808881526020018781526020018681526020018581526020018481526020018973ffffffffffffffffffffffffffffffffffffffff1681526020018315158152509050600181908060018154018082558091505060019003906000526020600020906006020160009091909190915060008201518160000190816103ed91906140ea565b50602082015181600101908161040391906140ea565b50604082015181600201908161041991906140ea565b50606082015181600301908161042f91906140ea565b50608082015181600401908161044591906140ea565b5060a08201518160050160006101000a81548173ffffffffffffffffffffffffffffffffffffffff021916908373ffffffffffffffffffffffffffffffffffffffff16021790555060c08201518160050160146101000a81548160ff02191690831515021790555050507f5459924f47afb4c4c2b8f167ec368a8a6fa9556fb8490f5f9e7538fca386f23f87878787878d886040516104ea9796959493929190613637565b60405180910390a15050505050505050565b60008054906101000a900473ffffffffffffffffffffffffffffffffffffffff1673ffffffffffffffffffffffffffffffffffffffff1663f851a4406040518163ffffffff1660e01b8152600401602060405180830381865afa158015610567573d6000803e3d6000fd5b505050506040513d601f19601f8201168201806040525081019061058b9190613e29565b73ffffffffffffffffffffffffffffffffffffffff163373ffffffffffffffffffffffffffffffffffffffff16146105f8576040517f08c379a00000000000000000000000000000000000000000000000000000000081526004016105ef90613ec8565b60405180910390fd5b60006040518061016001604052808d81526020018c81526020018b81526020018a81526020018981526020018881526020018781526020018681526020018581526020018473ffffffffffffffffffffffffffffffffffffffff168152602001831515815250905060028190806001815401808255809150506001900390600052602060002090600a020160009091909190915060008201518160000190816106a191906140ea565b5060208201518160010190816106b791906140ea565b5060408201518160020190816106cd91906140ea565b5060608201518160030190816106e391906140ea565b5060808201518160040190816106f991906140ea565b5060a082015181600501908161070f91906140ea565b5060c082015181600601908161072591906140ea565b5060e082015181600701908161073b91906140ea565b5061010082015181600801908161075291906140ea565b506101208201518160090160006101000a81548173ffffffffffffffffffffffffffffffffffffffff021916908373ffffffffffffffffffffffffffffffffffffffff1602179055506101408201518160090160146101000a81548160ff02191690831515021790555050507f95698c66ac39bc43c0022996266e94c2b11016b65018518141bd58898699bd3a8c8c8c8c8c8c8c8c8c8c8c6040516108019b9a99989796959493929190613743565b60405180910390a1505050505050505050505050565b6001818154811061082757600080fd5b906000526020600020906006020160009150905080600001805461084a90613f17565b80601f016020809104026020016040519081016040528092919081815260200182805461087690613f17565b80156108c35780601f10610898576101008083540402835291602001916108c3565b820191906000526020600020905b8154815290600101906020018083116108a657829003601f168201915b5050505050908060010180546108d890613f17565b80601f016020809104026020016040519081016040528092919081815260200182805461090490613f17565b80156109515780601f1061092657610100808354040283529160200191610951565b820191906000526020600020905b81548152906001019060200180831161093457829003601f168201915b50505050509080600201805461096690613f17565b80601f016020809104026020016040519081016040528092919081815260200182805461099290613f17565b80156109df5780601f106109b4576101008083540402835291602001916109df565b820191906000526020600020905b8154815290600101906020018083116109c257829003601f168201915b5050505050908060030180546109f490613f17565b80601f0160208091040260200160405190810160405280929190818152602001828054610a2090613f17565b8015610a6d5780601f10610a4257610100808354040283529160200191610a6d565b820191906000526020600020905b815481529060010190602001808311610a5057829003601f168201915b505050505090806004018054610a8290613f17565b80601f0160208091040260200160405190810160405280929190818152602001828054610aae90613f17565b8015610afb5780601f10610ad057610100808354040283529160200191610afb565b820191906000526020600020905b815481529060010190602001808311610ade57829003601f168201915b5050505050908060050160009054906101000a900473ffffffffffffffffffffffffffffffffffffffff16908060050160149054906101000a900460ff16905087565b60008054906101000a900473ffffffffffffffffffffffffffffffffffffffff1681565b60028181548110610b7257600080fd5b90600052602060002090600a0201600091509050806000018054610b9590613f17565b80601f0160208091040260200160405190810160405280929190818152602001828054610bc190613f17565b8015610c0e5780601f10610be357610100808354040283529160200191610c0e565b820191906000526020600020905b815481529060010190602001808311610bf157829003601f168201915b505050505090806001018054610c2390613f17565b80601f0160208091040260200160405190810160405280929190818152602001828054610c4f90613f17565b8015610c9c5780601f10610c7157610100808354040283529160200191610c9c565b820191906000526020600020905b815481529060010190602001808311610c7f57829003601f168201915b505050505090806002018054610cb190613f17565b80601f0160208091040260200160405190810160405280929190818152602001828054610cdd90613f17565b8015610d2a5780601f10610cff57610100808354040283529160200191610d2a565b820191906000526020600020905b815481529060010190602001808311610d0d57829003601f168201915b505050505090806003018054610d3f90613f17565b80601f0160208091040260200160405190810160405280929190818152602001828054610d6b90613f17565b8015610db85780601f10610d8d57610100808354040283529160200191610db8565b820191906000526020600020905b815481529060010190602001808311610d9b57829003601f168201915b505050505090806004018054610dcd90613f17565b80601f0160208091040260200160405190810160405280929190818152602001828054610df990613f17565b8015610e465780601f10610e1b57610100808354040283529160200191610e46565b820191906000526020600020905b815481529060010190602001808311610e2957829003601f168201915b505050505090806005018054610e5b90613f17565b80601f0160208091040260200160405190810160405280929190818152602001828054610e8790613f17565b8015610ed45780601f10610ea957610100808354040283529160200191610ed4565b820191906000526020600020905b815481529060010190602001808311610eb757829003601f168201915b505050505090806006018054610ee990613f17565b80601f0160208091040260200160405190810160405280929190818152602001828054610f1590613f17565b8015610f625780601f10610f3757610100808354040283529160200191610f62565b820191906000526020600020905b815481529060010190602001808311610f4557829003601f168201915b505050505090806007018054610f7790613f17565b80601f0160208091040260200160405190810160405280929190818152602001828054610fa390613f17565b8015610ff05780601f10610fc557610100808354040283529160200191610ff0565b820191906000526020600020905b815481529060010190602001808311610fd357829003601f168201915b50505050509080600801805461100590613f17565b80601f016020809104026020016040519081016040528092919081815260200182805461103190613f17565b801561107e5780601f106110535761010080835404028352916020019161107e565b820191906000526020600020905b81548152906001019060200180831161106157829003601f168201915b5050505050908060090160009054906101000a900473ffffffffffffffffffffffffffffffffffffffff16908060090160149054906101000a900460ff1690508b565b6000606080606080606060008060009054906101000a900473ffffffffffffffffffffffffffffffffffffffff1673ffffffffffffffffffffffffffffffffffffffff16631132beb5336040518263ffffffff1660e01b815260040161112791906141bc565b602060405180830381865afa158015611144573d6000803e3d6000fd5b505050506040513d601f19601f8201168201806040525081019061116891906141ec565b80611209575060008054906101000a900473ffffffffffffffffffffffffffffffffffffffff1673ffffffffffffffffffffffffffffffffffffffff166324d7806c336040518263ffffffff1660e01b81526004016111c791906141bc565b602060405180830381865afa1580156111e4573d6000803e3d6000fd5b505050506040513d601f19601f8201168201806040525081019061120891906141ec565b5b806112aa575060008054906101000a900473ffffffffffffffffffffffffffffffffffffffff1673ffffffffffffffffffffffffffffffffffffffff16635c4c9348336040518263ffffffff1660e01b815260040161126891906141bc565b602060405180830381865afa158015611285573d6000803e3d6000fd5b505050506040513d601f19601f820116820180604052508101906112a991906141ec565b5b6112e9576040517f08c379a00000000000000000000000000000000000000000000000000000000081526004016112e09061428b565b60405180910390fd5b60005b600180549050811015611786578873ffffffffffffffffffffffffffffffffffffffff1660018281548110611324576113236142ab565b5b906000526020600020906006020160050160009054906101000a900473ffffffffffffffffffffffffffffffffffffffff1673ffffffffffffffffffffffffffffffffffffffff16036117735760018181548110611385576113846142ab565b5b906000526020600020906006020160050160009054906101000a900473ffffffffffffffffffffffffffffffffffffffff16600182815481106113cb576113ca6142ab565b5b9060005260206000209060060201600001600183815481106113f0576113ef6142ab565b5b906000526020600020906006020160010160018481548110611415576114146142ab565b5b90600052602060002090600602016002016001858154811061143a576114396142ab565b5b90600052602060002090600602016003016001868154811061145f5761145e6142ab565b5b906000526020600020906006020160040160018781548110611484576114836142ab565b5b906000526020600020906006020160050160149054906101000a900460ff168580546114af90613f17565b80601f01602080910402602001604051908101604052809291908181526020018280546114db90613f17565b80156115285780601f106114fd57610100808354040283529160200191611528565b820191906000526020600020905b81548152906001019060200180831161150b57829003601f168201915b5050505050955084805461153b90613f17565b80601f016020809104026020016040519081016040528092919081815260200182805461156790613f17565b80156115b45780601f10611589576101008083540402835291602001916115b4565b820191906000526020600020905b81548152906001019060200180831161159757829003601f168201915b505050505094508380546115c790613f17565b80601f01602080910402602001604051908101604052809291908181526020018280546115f390613f17565b80156116405780601f1061161557610100808354040283529160200191611640565b820191906000526020600020905b81548152906001019060200180831161162357829003601f168201915b5050505050935082805461165390613f17565b80601f016020809104026020016040519081016040528092919081815260200182805461167f90613f17565b80156116cc5780601f106116a1576101008083540402835291602001916116cc565b820191906000526020600020905b8154815290600101906020018083116116af57829003601f168201915b505050505092508180546116df90613f17565b80601f016020809104026020016040519081016040528092919081815260200182805461170b90613f17565b80156117585780601f1061172d57610100808354040283529160200191611758565b820191906000526020600020905b81548152906001019060200180831161173b57829003601f168201915b505050505091509750975097509750975097509750506117ee565b808061177e90614309565b9150506112ec565b506000806040518060200160405280600081525090604051806020016040528060008152509060405180602001604052806000815250906040518060200160405280600081525090604051806020016040528060008152509096509650965096509650965096505b919395979092949650565b606060008054906101000a900473ffffffffffffffffffffffffffffffffffffffff1673ffffffffffffffffffffffffffffffffffffffff1663f851a4406040518163ffffffff1660e01b8152600401602060405180830381865afa158015611866573d6000803e3d6000fd5b505050506040513d601f19601f8201168201806040525081019061188a9190613e29565b73ffffffffffffffffffffffffffffffffffffffff163373ffffffffffffffffffffffffffffffffffffffff16146118f7576040517f08c379a00000000000000000000000000000000000000000000000000000000081526004016118ee90613ec8565b60405180910390fd5b6001805480602002602001604051908101604052809291908181526020016000905b82821015611c9657838290600052602060002090600602016040518060e001604052908160008201805461194c90613f17565b80601f016020809104026020016040519081016040528092919081815260200182805461197890613f17565b80156119c55780601f1061199a576101008083540402835291602001916119c5565b820191906000526020600020905b8154815290600101906020018083116119a857829003601f168201915b505050505081526020016001820180546119de90613f17565b80601f0160208091040260200160405190810160405280929190818152602001828054611a0a90613f17565b8015611a575780601f10611a2c57610100808354040283529160200191611a57565b820191906000526020600020905b815481529060010190602001808311611a3a57829003601f168201915b50505050508152602001600282018054611a7090613f17565b80601f0160208091040260200160405190810160405280929190818152602001828054611a9c90613f17565b8015611ae95780601f10611abe57610100808354040283529160200191611ae9565b820191906000526020600020905b815481529060010190602001808311611acc57829003601f168201915b50505050508152602001600382018054611b0290613f17565b80601f0160208091040260200160405190810160405280929190818152602001828054611b2e90613f17565b8015611b7b5780601f10611b5057610100808354040283529160200191611b7b565b820191906000526020600020905b815481529060010190602001808311611b5e57829003601f168201915b50505050508152602001600482018054611b9490613f17565b80601f0160208091040260200160405190810160405280929190818152602001828054611bc090613f17565b8015611c0d5780601f10611be257610100808354040283529160200191611c0d565b820191906000526020600020905b815481529060010190602001808311611bf057829003601f168201915b505050505081526020016005820160009054906101000a900473ffffffffffffffffffffffffffffffffffffffff1673ffffffffffffffffffffffffffffffffffffffff1673ffffffffffffffffffffffffffffffffffffffff1681526020016005820160149054906101000a900460ff16151515158152505081526020019060010190611919565b50505050905090565b60008054906101000a900473ffffffffffffffffffffffffffffffffffffffff1673ffffffffffffffffffffffffffffffffffffffff1663f851a4406040518163ffffffff1660e01b8152600401602060405180830381865afa158015611d0a573d6000803e3d6000fd5b505050506040513d601f19601f82011682018060405250810190611d2e9190613e29565b73ffffffffffffffffffffffffffffffffffffffff163373ffffffffffffffffffffffffffffffffffffffff1614611d9b576040517f08c379a0000000000000000000000000000000000000000000000000000000008152600401611d9290613ec8565b60405180910390fd5b6000805b600280549050811015612048578373ffffffffffffffffffffffffffffffffffffffff1660028281548110611dd757611dd66142ab565b5b90600052602060002090600a020160090160009054906101000a900473ffffffffffffffffffffffffffffffffffffffff1673ffffffffffffffffffffffffffffffffffffffff160361203557600191508c60028281548110611e3d57611e3c6142ab565b5b90600052602060002090600a02016000019081611e5a91906140ea565b508b60028281548110611e7057611e6f6142ab565b5b90600052602060002090600a02016001019081611e8d91906140ea565b508a60028281548110611ea357611ea26142ab565b5b90600052602060002090600a02016002019081611ec091906140ea565b508960028281548110611ed657611ed56142ab565b5b90600052602060002090600a02016003019081611ef391906140ea565b508860028281548110611f0957611f086142ab565b5b90600052602060002090600a02016004019081611f2691906140ea565b508760028281548110611f3c57611f3b6142ab565b5b90600052602060002090600a02016005019081611f5991906140ea565b508660028281548110611f6f57611f6e6142ab565b5b90600052602060002090600a02016006019081611f8c91906140ea565b508560028281548110611fa257611fa16142ab565b5b90600052602060002090600a02016007019081611fbf91906140ea565b508460028281548110611fd557611fd46142ab565b5b90600052602060002090600a02016008019081611ff291906140ea565b508260028281548110612008576120076142ab565b5b90600052602060002090600a020160090160146101000a81548160ff021916908315150217905550612048565b808061204090614309565b915050611d9f565b5080612089576040517f08c379a00000000000000000000000000000000000000000000000000000000081526004016120809061439d565b60405180910390fd5b505050505050505050505050565b606060008054906101000a900473ffffffffffffffffffffffffffffffffffffffff1673ffffffffffffffffffffffffffffffffffffffff16631132beb5336040518263ffffffff1660e01b81526004016120f291906141bc565b602060405180830381865afa15801561210f573d6000803e3d6000fd5b505050506040513d601f19601f8201168201806040525081019061213391906141ec565b806121d4575060008054906101000a900473ffffffffffffffffffffffffffffffffffffffff1673ffffffffffffffffffffffffffffffffffffffff166324d7806c336040518263ffffffff1660e01b815260040161219291906141bc565b602060405180830381865afa1580156121af573d6000803e3d6000fd5b505050506040513d601f19601f820116820180604052508101906121d391906141ec565b5b80612275575060008054906101000a900473ffffffffffffffffffffffffffffffffffffffff1673ffffffffffffffffffffffffffffffffffffffff16635c4c9348336040518263ffffffff1660e01b815260040161223391906141bc565b602060405180830381865afa158015612250573d6000803e3d6000fd5b505050506040513d601f19601f8201168201806040525081019061227491906141ec565b5b6122b4576040517f08c379a00000000000000000000000000000000000000000000000000000000081526004016122ab9061428b565b60405180910390fd5b6002805480602002602001604051908101604052809291908181526020016000905b8282101561289c57838290600052602060002090600a02016040518061016001604052908160008201805461230a90613f17565b80601f016020809104026020016040519081016040528092919081815260200182805461233690613f17565b80156123835780601f1061235857610100808354040283529160200191612383565b820191906000526020600020905b81548152906001019060200180831161236657829003601f168201915b5050505050815260200160018201805461239c90613f17565b80601f01602080910402602001604051908101604052809291908181526020018280546123c890613f17565b80156124155780601f106123ea57610100808354040283529160200191612415565b820191906000526020600020905b8154815290600101906020018083116123f857829003601f168201915b5050505050815260200160028201805461242e90613f17565b80601f016020809104026020016040519081016040528092919081815260200182805461245a90613f17565b80156124a75780601f1061247c576101008083540402835291602001916124a7565b820191906000526020600020905b81548152906001019060200180831161248a57829003601f168201915b505050505081526020016003820180546124c090613f17565b80601f01602080910402602001604051908101604052809291908181526020018280546124ec90613f17565b80156125395780601f1061250e57610100808354040283529160200191612539565b820191906000526020600020905b81548152906001019060200180831161251c57829003601f168201915b5050505050815260200160048201805461255290613f17565b80601f016020809104026020016040519081016040528092919081815260200182805461257e90613f17565b80156125cb5780601f106125a0576101008083540402835291602001916125cb565b820191906000526020600020905b8154815290600101906020018083116125ae57829003601f168201915b505050505081526020016005820180546125e490613f17565b80601f016020809104026020016040519081016040528092919081815260200182805461261090613f17565b801561265d5780601f106126325761010080835404028352916020019161265d565b820191906000526020600020905b81548152906001019060200180831161264057829003601f168201915b5050505050815260200160068201805461267690613f17565b80601f01602080910402602001604051908101604052809291908181526020018280546126a290613f17565b80156126ef5780601f106126c4576101008083540402835291602001916126ef565b820191906000526020600020905b8154815290600101906020018083116126d257829003601f168201915b5050505050815260200160078201805461270890613f17565b80601f016020809104026020016040519081016040528092919081815260200182805461273490613f17565b80156127815780601f1061275657610100808354040283529160200191612781565b820191906000526020600020905b81548152906001019060200180831161276457829003601f168201915b5050505050815260200160088201805461279a90613f17565b80601f01602080910402602001604051908101604052809291908181526020018280546127c690613f17565b80156128135780601f106127e857610100808354040283529160200191612813565b820191906000526020600020905b8154815290600101906020018083116127f657829003601f168201915b505050505081526020016009820160009054906101000a900473ffffffffffffffffffffffffffffffffffffffff1673ffffffffffffffffffffffffffffffffffffffff1673ffffffffffffffffffffffffffffffffffffffff1681526020016009820160149054906101000a900460ff161515151581525050815260200190600101906122d6565b50505050905090565b60006040518060e001604052808881526020018781526020018681526020018581526020018481526020013373ffffffffffffffffffffffffffffffffffffffff16815260200183151581525090506001819080600181540180825580915050600190039060005260206000209060060201600090919091909150600082015181600001908161293591906140ea565b50602082015181600101908161294b91906140ea565b50604082015181600201908161296191906140ea565b50606082015181600301908161297791906140ea565b50608082015181600401908161298d91906140ea565b5060a08201518160050160006101000a81548173ffffffffffffffffffffffffffffffffffffffff021916908373ffffffffffffffffffffffffffffffffffffffff16021790555060c08201518160050160146101000a81548160ff02191690831515021790555050507f5459924f47afb4c4c2b8f167ec368a8a6fa9556fb8490f5f9e7538fca386f23f87878787873388604051612a329796959493929190613637565b60405180910390a150505050505050565b60008054906101000a900473ffffffffffffffffffffffffffffffffffffffff1673ffffffffffffffffffffffffffffffffffffffff16631132beb5336040518263ffffffff1660e01b8152600401612a9c91906141bc565b602060405180830381865afa158015612ab9573d6000803e3d6000fd5b505050506040513d601f19601f82011682018060405250810190612add91906141ec565b612b1c576040517f08c379a0000000000000000000000000000000000000000000000000000000008152600401612b139061442f565b60405180910390fd5b60005b600180549050811015612cf8573373ffffffffffffffffffffffffffffffffffffffff1660018281548110612b5757612b566142ab565b5b906000526020600020906006020160050160009054906101000a900473ffffffffffffffffffffffffffffffffffffffff1673ffffffffffffffffffffffffffffffffffffffff1603612ce5578660018281548110612bb957612bb86142ab565b5b90600052602060002090600602016000019081612bd691906140ea565b508560018281548110612bec57612beb6142ab565b5b90600052602060002090600602016001019081612c0991906140ea565b508460018281548110612c1f57612c1e6142ab565b5b90600052602060002090600602016002019081612c3c91906140ea565b508360018281548110612c5257612c516142ab565b5b90600052602060002090600602016003019081612c6f91906140ea565b508260018281548110612c8557612c846142ab565b5b90600052602060002090600602016004019081612ca291906140ea565b508160018281548110612cb857612cb76142ab565b5b906000526020600020906006020160050160146101000a81548160ff021916908315150217905550612cf8565b8080612cf090614309565b915050612b1f565b50505050505050565b60008054906101000a900473ffffffffffffffffffffffffffffffffffffffff1673ffffffffffffffffffffffffffffffffffffffff1663f851a4406040518163ffffffff1660e01b8152600401602060405180830381865afa158015612d6c573d6000803e3d6000fd5b505050506040513d601f19601f82011682018060405250810190612d909190613e29565b73ffffffffffffffffffffffffffffffffffffffff163373ffffffffffffffffffffffffffffffffffffffff1614612dfd576040517f08c379a0000000000000000000000000000000000000000000000000000000008152600401612df490613ec8565b60405180910390fd5b6000805b600180549050811015612fde578873ffffffffffffffffffffffffffffffffffffffff1660018281548110612e3957612e386142ab565b5b906000526020600020906006020160050160009054906101000a900473ffffffffffffffffffffffffffffffffffffffff1673ffffffffffffffffffffffffffffffffffffffff1603612fcb57600191508760018281548110612e9f57612e9e6142ab565b5b90600052602060002090600602016000019081612ebc91906140ea565b508660018281548110612ed257612ed16142ab565b5b90600052602060002090600602016001019081612eef91906140ea565b508560018281548110612f0557612f046142ab565b5b90600052602060002090600602016002019081612f2291906140ea565b508460018281548110612f3857612f376142ab565b5b90600052602060002090600602016003019081612f5591906140ea565b508360018281548110612f6b57612f6a6142ab565b5b90600052602060002090600602016004019081612f8891906140ea565b508260018281548110612f9e57612f9d6142ab565b5b906000526020600020906006020160050160146101000a81548160ff021916908315150217905550612fde565b8080612fd690614309565b915050612e01565b508061301f576040517f08c379a00000000000000000000000000000000000000000000000000000000081526004016130169061449b565b60405180910390fd5b5050505050505050565b6000604051905090565b600080fd5b600080fd5b600073ffffffffffffffffffffffffffffffffffffffff82169050919050565b60006130688261303d565b9050919050565b6130788161305d565b811461308357600080fd5b50565b6000813590506130958161306f565b92915050565b600080fd5b600080fd5b6000601f19601f8301169050919050565b7f4e487b7100000000000000000000000000000000000000000000000000000000600052604160045260246000fd5b6130ee826130a5565b810181811067ffffffffffffffff8211171561310d5761310c6130b6565b5b80604052505050565b6000613120613029565b905061312c82826130e5565b919050565b600067ffffffffffffffff82111561314c5761314b6130b6565b5b613155826130a5565b9050602081019050919050565b82818337600083830152505050565b600061318461317f84613131565b613116565b9050828152602081018484840111156131a05761319f6130a0565b5b6131ab848285613162565b509392505050565b600082601f8301126131c8576131c761309b565b5b81356131d8848260208601613171565b91505092915050565b60008115159050919050565b6131f6816131e1565b811461320157600080fd5b50565b600081359050613213816131ed565b92915050565b600080600080600080600060e0888a03121561323857613237613033565b5b60006132468a828b01613086565b975050602088013567ffffffffffffffff81111561326757613266613038565b5b6132738a828b016131b3565b965050604088013567ffffffffffffffff81111561329457613293613038565b5b6132a08a828b016131b3565b955050606088013567ffffffffffffffff8111156132c1576132c0613038565b5b6132cd8a828b016131b3565b945050608088013567ffffffffffffffff8111156132ee576132ed613038565b5b6132fa8a828b016131b3565b93505060a088013567ffffffffffffffff81111561331b5761331a613038565b5b6133278a828b016131b3565b92505060c06133388a828b01613204565b91505092959891949750929550565b60008060008060008060008060008060006101608c8e03121561336d5761336c613033565b5b60008c013567ffffffffffffffff81111561338b5761338a613038565b5b6133978e828f016131b3565b9b505060208c013567ffffffffffffffff8111156133b8576133b7613038565b5b6133c48e828f016131b3565b9a505060408c013567ffffffffffffffff8111156133e5576133e4613038565b5b6133f18e828f016131b3565b99505060608c013567ffffffffffffffff81111561341257613411613038565b5b61341e8e828f016131b3565b98505060808c013567ffffffffffffffff81111561343f5761343e613038565b5b61344b8e828f016131b3565b97505060a08c013567ffffffffffffffff81111561346c5761346b613038565b5b6134788e828f016131b3565b96505060c08c013567ffffffffffffffff81111561349957613498613038565b5b6134a58e828f016131b3565b95505060e08c013567ffffffffffffffff8111156134c6576134c5613038565b5b6134d28e828f016131b3565b9450506101008c013567ffffffffffffffff8111156134f4576134f3613038565b5b6135008e828f016131b3565b9350506101206135128e828f01613086565b9250506101406135248e828f01613204565b9150509295989b509295989b9093969950565b6000819050919050565b61354a81613537565b811461355557600080fd5b50565b60008135905061356781613541565b92915050565b60006020828403121561358357613582613033565b5b600061359184828501613558565b91505092915050565b600081519050919050565b600082825260208201905092915050565b60005b838110156135d45780820151818401526020810190506135b9565b60008484015250505050565b60006135eb8261359a565b6135f581856135a5565b93506136058185602086016135b6565b61360e816130a5565b840191505092915050565b6136228161305d565b82525050565b613631816131e1565b82525050565b600060e0820190508181036000830152613651818a6135e0565b9050818103602083015261366581896135e0565b9050818103604083015261367981886135e0565b9050818103606083015261368d81876135e0565b905081810360808301526136a181866135e0565b90506136b060a0830185613619565b6136bd60c0830184613628565b98975050505050505050565b6000819050919050565b60006136ee6136e96136e48461303d565b6136c9565b61303d565b9050919050565b6000613700826136d3565b9050919050565b6000613712826136f5565b9050919050565b61372281613707565b82525050565b600060208201905061373d6000830184613719565b92915050565b600061016082019050818103600083015261375e818e6135e0565b90508181036020830152613772818d6135e0565b90508181036040830152613786818c6135e0565b9050818103606083015261379a818b6135e0565b905081810360808301526137ae818a6135e0565b905081810360a08301526137c281896135e0565b905081810360c08301526137d681886135e0565b905081810360e08301526137ea81876135e0565b90508181036101008301526137ff81866135e0565b905061380f610120830185613619565b61381d610140830184613628565b9c9b505050505050505050505050565b60006020828403121561384357613842613033565b5b600061385184828501613086565b91505092915050565b600060e08201905061386f600083018a613619565b818103602083015261388181896135e0565b9050818103604083015261389581886135e0565b905081810360608301526138a981876135e0565b905081810360808301526138bd81866135e0565b905081810360a08301526138d181856135e0565b90506138e060c0830184613628565b98975050505050505050565b600081519050919050565b600082825260208201905092915050565b6000819050602082019050919050565b600082825260208201905092915050565b60006139348261359a565b61393e8185613918565b935061394e8185602086016135b6565b613957816130a5565b840191505092915050565b61396b8161305d565b82525050565b61397a816131e1565b82525050565b600060e083016000830151848203600086015261399d8282613929565b915050602083015184820360208601526139b78282613929565b915050604083015184820360408601526139d18282613929565b915050606083015184820360608601526139eb8282613929565b91505060808301518482036080860152613a058282613929565b91505060a0830151613a1a60a0860182613962565b5060c0830151613a2d60c0860182613971565b508091505092915050565b6000613a448383613980565b905092915050565b6000602082019050919050565b6000613a64826138ec565b613a6e81856138f7565b935083602082028501613a8085613908565b8060005b85811015613abc5784840389528151613a9d8582613a38565b9450613aa883613a4c565b925060208a01995050600181019050613a84565b50829750879550505050505092915050565b60006020820190508181036000830152613ae88184613a59565b905092915050565b600081519050919050565b600082825260208201905092915050565b6000819050602082019050919050565b6000610160830160008301518482036000860152613b3a8282613929565b91505060208301518482036020860152613b548282613929565b91505060408301518482036040860152613b6e8282613929565b91505060608301518482036060860152613b888282613929565b91505060808301518482036080860152613ba28282613929565b91505060a083015184820360a0860152613bbc8282613929565b91505060c083015184820360c0860152613bd68282613929565b91505060e083015184820360e0860152613bf08282613929565b915050610100830151848203610100860152613c0c8282613929565b915050610120830151613c23610120860182613962565b50610140830151613c38610140860182613971565b508091505092915050565b6000613c4f8383613b1c565b905092915050565b6000602082019050919050565b6000613c6f82613af0565b613c798185613afb565b935083602082028501613c8b85613b0c565b8060005b85811015613cc75784840389528151613ca88582613c43565b9450613cb383613c57565b925060208a01995050600181019050613c8f565b50829750879550505050505092915050565b60006020820190508181036000830152613cf38184613c64565b905092915050565b60008060008060008060c08789031215613d1857613d17613033565b5b600087013567ffffffffffffffff811115613d3657613d35613038565b5b613d4289828a016131b3565b965050602087013567ffffffffffffffff811115613d6357613d62613038565b5b613d6f89828a016131b3565b955050604087013567ffffffffffffffff811115613d9057613d8f613038565b5b613d9c89828a016131b3565b945050606087013567ffffffffffffffff811115613dbd57613dbc613038565b5b613dc989828a016131b3565b935050608087013567ffffffffffffffff811115613dea57613de9613038565b5b613df689828a016131b3565b92505060a0613e0789828a01613204565b9150509295509295509295565b600081519050613e238161306f565b92915050565b600060208284031215613e3f57613e3e613033565b5b6000613e4d84828501613e14565b91505092915050565b7f48616e79612061646d696e2079616e67206469697a696e6b616e20756e74756b60008201527f206d656e67616b7365732e000000000000000000000000000000000000000000602082015250565b6000613eb2602b836135a5565b9150613ebd82613e56565b604082019050919050565b60006020820190508181036000830152613ee181613ea5565b9050919050565b7f4e487b7100000000000000000000000000000000000000000000000000000000600052602260045260246000fd5b60006002820490506001821680613f2f57607f821691505b602082108103613f4257613f41613ee8565b5b50919050565b60008190508160005260206000209050919050565b60006020601f8301049050919050565b600082821b905092915050565b600060088302613faa7fffffffffffffffffffffffffffffffffffffffffffffffffffffffffffffffff82613f6d565b613fb48683613f6d565b95508019841693508086168417925050509392505050565b6000613fe7613fe2613fdd84613537565b6136c9565b613537565b9050919050565b6000819050919050565b61400183613fcc565b61401561400d82613fee565b848454613f7a565b825550505050565b600090565b61402a61401d565b614035818484613ff8565b505050565b5b818110156140595761404e600082614022565b60018101905061403b565b5050565b601f82111561409e5761406f81613f48565b61407884613f5d565b81016020851015614087578190505b61409b61409385613f5d565b83018261403a565b50505b505050565b600082821c905092915050565b60006140c1600019846008026140a3565b1980831691505092915050565b60006140da83836140b0565b9150826002028217905092915050565b6140f38261359a565b67ffffffffffffffff81111561410c5761410b6130b6565b5b6141168254613f17565b61412182828561405d565b600060209050601f8311600181146141545760008415614142578287015190505b61414c85826140ce565b8655506141b4565b601f19841661416286613f48565b60005b8281101561418a57848901518255600182019150602085019450602081019050614165565b868310156141a757848901516141a3601f8916826140b0565b8355505b6001600288020188555050505b505050505050565b60006020820190506141d16000830184613619565b92915050565b6000815190506141e6816131ed565b92915050565b60006020828403121561420257614201613033565b5b6000614210848285016141d7565b91505092915050565b7f48616e79612070656e6767756e61207465726461667461722079616e6720646960008201527f697a696e6b616e20756e74756b206d656e67616b7365732e0000000000000000602082015250565b60006142756038836135a5565b915061428082614219565b604082019050919050565b600060208201905081810360008301526142a481614268565b9050919050565b7f4e487b7100000000000000000000000000000000000000000000000000000000600052603260045260246000fd5b7f4e487b7100000000000000000000000000000000000000000000000000000000600052601160045260246000fd5b600061431482613537565b91507fffffffffffffffffffffffffffffffffffffffffffffffffffffffffffffffff8203614346576143456142da565b5b600182019050919050565b7f446f6b74657220746964616b20646974656d756b616e2e000000000000000000600082015250565b60006143876017836135a5565b915061439282614351565b602082019050919050565b600060208201905081810360008301526143b68161437a565b9050919050565b7f48616e79612070617369656e2079616e67206469697a696e6b616e20756e747560008201527f6b206d656e67616b7365732e0000000000000000000000000000000000000000602082015250565b6000614419602c836135a5565b9150614424826143bd565b604082019050919050565b600060208201905081810360008301526144488161440c565b9050919050565b7f5573657220746964616b20646974656d756b616e2e0000000000000000000000600082015250565b60006144856015836135a5565b91506144908261444f565b602082019050919050565b600060208201905081810360008301526144b481614478565b905091905056fea2646970667358221220e122af4a0a7d39148ab7bc099a72a128073d360838937205a083d7e545a783be64736f6c63430008110033",
  "linkReferences": {},
  "deployedLinkReferences": {}
}