{
  "_format": "hh-sol-artifact-1",
  "contractName": "UserData",
  "sourceName": "contracts/user.sol",
  "abi": [
    {
      "inputs": [
        {
          "internalType": "address",
          "name": "_rolesContractAddress",
          "type": "address"
        }
      ],
      "stateMutability": "nonpayable",
      "type": "constructor"
    },
    {
      "anonymous": false,
      "inputs": [
        {
          "indexed": false,
          "internalType": "string",
          "name": "nama",
          "type": "string"
        },
        {
          "indexed": false,
          "internalType": "string",
          "name": "email",
          "type": "string"
        },
        {
          "indexed": false,
          "internalType": "string",
          "name": "telepon",
          "type": "string"
        },
        {
          "indexed": false,
          "internalType": "string",
          "name": "gender",
          "type": "string"
        },
        {
          "indexed": false,
          "internalType": "string",
          "name": "tanggalLahir",
          "type": "string"
        },
        {
          "indexed": false,
          "internalType": "address",
          "name": "wallet",
          "type": "address"
        },
        {
          "indexed": false,
          "internalType": "bool",
          "name": "status",
          "type": "bool"
        }
      ],
      "name": "UserAdded",
      "type": "event"
    },
    {
      "inputs": [
        {
          "internalType": "string",
          "name": "_nama",
          "type": "string"
        },
        {
          "internalType": "string",
          "name": "_email",
          "type": "string"
        },
        {
          "internalType": "string",
          "name": "_telepon",
          "type": "string"
        },
        {
          "internalType": "string",
          "name": "_gender",
          "type": "string"
        },
        {
          "internalType": "string",
          "name": "_tanggalLahir",
          "type": "string"
        },
        {
          "internalType": "bool",
          "name": "_status",
          "type": "bool"
        }
      ],
      "name": "addUser",
      "outputs": [],
      "stateMutability": "nonpayable",
      "type": "function"
    },
    {
      "inputs": [
        {
          "internalType": "address",
          "name": "_wallet",
          "type": "address"
        },
        {
          "internalType": "string",
          "name": "_nama",
          "type": "string"
        },
        {
          "internalType": "string",
          "name": "_email",
          "type": "string"
        },
        {
          "internalType": "string",
          "name": "_telepon",
          "type": "string"
        },
        {
          "internalType": "string",
          "name": "_gender",
          "type": "string"
        },
        {
          "internalType": "string",
          "name": "_tanggalLahir",
          "type": "string"
        },
        {
          "internalType": "bool",
          "name": "_status",
          "type": "bool"
        }
      ],
      "name": "addUserAdmin",
      "outputs": [],
      "stateMutability": "nonpayable",
      "type": "function"
    },
    {
      "inputs": [
        {
          "internalType": "address",
          "name": "_wallet",
          "type": "address"
        }
      ],
      "name": "getUser",
      "outputs": [
        {
          "internalType": "string",
          "name": "",
          "type": "string"
        },
        {
          "internalType": "string",
          "name": "",
          "type": "string"
        },
        {
          "internalType": "string",
          "name": "",
          "type": "string"
        },
        {
          "internalType": "string",
          "name": "",
          "type": "string"
        },
        {
          "internalType": "string",
          "name": "",
          "type": "string"
        },
        {
          "internalType": "bool",
          "name": "",
          "type": "bool"
        }
      ],
      "stateMutability": "view",
      "type": "function"
    },
    {
      "inputs": [],
      "name": "getUserAdmin",
      "outputs": [
        {
          "components": [
            {
              "internalType": "string",
              "name": "nama",
              "type": "string"
            },
            {
              "internalType": "string",
              "name": "email",
              "type": "string"
            },
            {
              "internalType": "string",
              "name": "telepon",
              "type": "string"
            },
            {
              "internalType": "string",
              "name": "gender",
              "type": "string"
            },
            {
              "internalType": "string",
              "name": "tanggalLahir",
              "type": "string"
            },
            {
              "internalType": "address",
              "name": "wallet",
              "type": "address"
            },
            {
              "internalType": "bool",
              "name": "status",
              "type": "bool"
            }
          ],
          "internalType": "struct UserData.User[]",
          "name": "",
          "type": "tuple[]"
        }
      ],
      "stateMutability": "view",
      "type": "function"
    },
    {
      "inputs": [],
      "name": "roles",
      "outputs": [
        {
          "internalType": "contract UserRoles",
          "name": "",
          "type": "address"
        }
      ],
      "stateMutability": "view",
      "type": "function"
    },
    {
      "inputs": [
        {
          "internalType": "string",
          "name": "_nama",
          "type": "string"
        },
        {
          "internalType": "string",
          "name": "_email",
          "type": "string"
        },
        {
          "internalType": "string",
          "name": "_telepon",
          "type": "string"
        },
        {
          "internalType": "string",
          "name": "_gender",
          "type": "string"
        },
        {
          "internalType": "string",
          "name": "_tanggalLahir",
          "type": "string"
        },
        {
          "internalType": "bool",
          "name": "_status",
          "type": "bool"
        }
      ],
      "name": "updateUser",
      "outputs": [],
      "stateMutability": "nonpayable",
      "type": "function"
    },
    {
      "inputs": [
        {
          "internalType": "address",
          "name": "_wallet",
          "type": "address"
        },
        {
          "internalType": "string",
          "name": "_nama",
          "type": "string"
        },
        {
          "internalType": "string",
          "name": "_email",
          "type": "string"
        },
        {
          "internalType": "string",
          "name": "_telepon",
          "type": "string"
        },
        {
          "internalType": "string",
          "name": "_gender",
          "type": "string"
        },
        {
          "internalType": "string",
          "name": "_tanggalLahir",
          "type": "string"
        },
        {
          "internalType": "bool",
          "name": "_status",
          "type": "bool"
        }
      ],
      "name": "updateUserAdmin",
      "outputs": [],
      "stateMutability": "nonpayable",
      "type": "function"
    },
    {
      "inputs": [
        {
          "internalType": "uint256",
          "name": "",
          "type": "uint256"
        }
      ],
      "name": "users",
      "outputs": [
        {
          "internalType": "string",
          "name": "nama",
          "type": "string"
        },
        {
          "internalType": "string",
          "name": "email",
          "type": "string"
        },
        {
          "internalType": "string",
          "name": "telepon",
          "type": "string"
        },
        {
          "internalType": "string",
          "name": "gender",
          "type": "string"
        },
        {
          "internalType": "string",
          "name": "tanggalLahir",
          "type": "string"
        },
        {
          "internalType": "address",
          "name": "wallet",
          "type": "address"
        },
        {
          "internalType": "bool",
          "name": "status",
          "type": "bool"
        }
      ],
      "stateMutability": "view",
      "type": "function"
    }
  ],
  "bytecode": "0x60806040523480156200001157600080fd5b506040516200260b3803806200260b8339818101604052810190620000379190620000e8565b806000806101000a81548173ffffffffffffffffffffffffffffffffffffffff021916908373ffffffffffffffffffffffffffffffffffffffff160217905550506200011a565b600080fd5b600073ffffffffffffffffffffffffffffffffffffffff82169050919050565b6000620000b08262000083565b9050919050565b620000c281620000a3565b8114620000ce57600080fd5b50565b600081519050620000e281620000b7565b92915050565b6000602082840312156200010157620001006200007e565b5b60006200011184828501620000d1565b91505092915050565b6124e1806200012a6000396000f3fe608060405234801561001057600080fd5b50600436106100885760003560e01c806374c6a8e41161005b57806374c6a8e414610132578063b6dda93314610150578063ddcd539d1461016c578063e21f3b781461018857610088565b80632e724fea1461008d578063365b98b2146100a9578063392f5f64146100df5780636f77926b146100fd575b600080fd5b6100a760048036038101906100a29190611955565b6101a4565b005b6100c360048036038101906100be9190611ab9565b61043f565b6040516100d69796959493929190611b83565b60405180910390f35b6100e7610766565b6040516100f49190611c74565b60405180910390f35b61011760048036038101906101129190611c8f565b61078a565b60405161012996959493929190611cbc565b60405180910390f35b61013a610c5a565b6040516101479190611f22565b60405180910390f35b61016a60048036038101906101659190611f44565b611100565b005b61018660048036038101906101819190611f44565b61129e565b005b6101a2600480360381019061019d9190611955565b611483565b005b60008054906101000a900473ffffffffffffffffffffffffffffffffffffffff1673ffffffffffffffffffffffffffffffffffffffff1663f851a4406040518163ffffffff1660e01b8152600401602060405180830381865afa15801561020f573d6000803e3d6000fd5b505050506040513d601f19601f820116820180604052508101906102339190612072565b73ffffffffffffffffffffffffffffffffffffffff163373ffffffffffffffffffffffffffffffffffffffff16146102a0576040517f08c379a000000000000000000000000000000000000000000000000000000000815260040161029790612111565b60405180910390fd5b60006040518060e001604052808881526020018781526020018681526020018581526020018481526020018973ffffffffffffffffffffffffffffffffffffffff1681526020018315158152509050600181908060018154018082558091505060019003906000526020600020906006020160009091909190915060008201518160000190816103309190612333565b5060208201518160010190816103469190612333565b50604082015181600201908161035c9190612333565b5060608201518160030190816103729190612333565b5060808201518160040190816103889190612333565b5060a08201518160050160006101000a81548173ffffffffffffffffffffffffffffffffffffffff021916908373ffffffffffffffffffffffffffffffffffffffff16021790555060c08201518160050160146101000a81548160ff02191690831515021790555050507f5459924f47afb4c4c2b8f167ec368a8a6fa9556fb8490f5f9e7538fca386f23f87878787878d8860405161042d9796959493929190611b83565b60405180910390a15050505050505050565b6001818154811061044f57600080fd5b906000526020600020906006020160009150905080600001805461047290612160565b80601f016020809104026020016040519081016040528092919081815260200182805461049e90612160565b80156104eb5780601f106104c0576101008083540402835291602001916104eb565b820191906000526020600020905b8154815290600101906020018083116104ce57829003601f168201915b50505050509080600101805461050090612160565b80601f016020809104026020016040519081016040528092919081815260200182805461052c90612160565b80156105795780601f1061054e57610100808354040283529160200191610579565b820191906000526020600020905b81548152906001019060200180831161055c57829003601f168201915b50505050509080600201805461058e90612160565b80601f01602080910402602001604051908101604052809291908181526020018280546105ba90612160565b80156106075780601f106105dc57610100808354040283529160200191610607565b820191906000526020600020905b8154815290600101906020018083116105ea57829003601f168201915b50505050509080600301805461061c90612160565b80601f016020809104026020016040519081016040528092919081815260200182805461064890612160565b80156106955780601f1061066a57610100808354040283529160200191610695565b820191906000526020600020905b81548152906001019060200180831161067857829003601f168201915b5050505050908060040180546106aa90612160565b80601f01602080910402602001604051908101604052809291908181526020018280546106d690612160565b80156107235780601f106106f857610100808354040283529160200191610723565b820191906000526020600020905b81548152906001019060200180831161070657829003601f168201915b5050505050908060050160009054906101000a900473ffffffffffffffffffffffffffffffffffffffff16908060050160149054906101000a900460ff16905087565b60008054906101000a900473ffffffffffffffffffffffffffffffffffffffff1681565b6060806060806060600080600090505b600180549050811015610bec578773ffffffffffffffffffffffffffffffffffffffff16600182815481106107d2576107d1612405565b5b906000526020600020906006020160050160009054906101000a900473ffffffffffffffffffffffffffffffffffffffff1673ffffffffffffffffffffffffffffffffffffffff1603610bd9576001818154811061083357610832612405565b5b90600052602060002090600602016000016001828154811061085857610857612405565b5b90600052602060002090600602016001016001838154811061087d5761087c612405565b5b9060005260206000209060060201600201600184815481106108a2576108a1612405565b5b9060005260206000209060060201600301600185815481106108c7576108c6612405565b5b9060005260206000209060060201600401600186815481106108ec576108eb612405565b5b906000526020600020906006020160050160149054906101000a900460ff1685805461091790612160565b80601f016020809104026020016040519081016040528092919081815260200182805461094390612160565b80156109905780601f1061096557610100808354040283529160200191610990565b820191906000526020600020905b81548152906001019060200180831161097357829003601f168201915b505050505095508480546109a390612160565b80601f01602080910402602001604051908101604052809291908181526020018280546109cf90612160565b8015610a1c5780601f106109f157610100808354040283529160200191610a1c565b820191906000526020600020905b8154815290600101906020018083116109ff57829003601f168201915b50505050509450838054610a2f90612160565b80601f0160208091040260200160405190810160405280929190818152602001828054610a5b90612160565b8015610aa85780601f10610a7d57610100808354040283529160200191610aa8565b820191906000526020600020905b815481529060010190602001808311610a8b57829003601f168201915b50505050509350828054610abb90612160565b80601f0160208091040260200160405190810160405280929190818152602001828054610ae790612160565b8015610b345780601f10610b0957610100808354040283529160200191610b34565b820191906000526020600020905b815481529060010190602001808311610b1757829003601f168201915b50505050509250818054610b4790612160565b80601f0160208091040260200160405190810160405280929190818152602001828054610b7390612160565b8015610bc05780601f10610b9557610100808354040283529160200191610bc0565b820191906000526020600020905b815481529060010190602001808311610ba357829003601f168201915b5050505050915096509650965096509650965050610c51565b8080610be490612463565b91505061079a565b506001604051806020016040528060008152509060405180602001604052806000815250906040518060200160405280600081525090604051806020016040528060008152509060405180602001604052806000815250909550955095509550955095505b91939550919395565b606060008054906101000a900473ffffffffffffffffffffffffffffffffffffffff1673ffffffffffffffffffffffffffffffffffffffff1663f851a4406040518163ffffffff1660e01b8152600401602060405180830381865afa158015610cc7573d6000803e3d6000fd5b505050506040513d601f19601f82011682018060405250810190610ceb9190612072565b73ffffffffffffffffffffffffffffffffffffffff163373ffffffffffffffffffffffffffffffffffffffff1614610d58576040517f08c379a0000000000000000000000000000000000000000000000000000000008152600401610d4f90612111565b60405180910390fd5b6001805480602002602001604051908101604052809291908181526020016000905b828210156110f757838290600052602060002090600602016040518060e0016040529081600082018054610dad90612160565b80601f0160208091040260200160405190810160405280929190818152602001828054610dd990612160565b8015610e265780601f10610dfb57610100808354040283529160200191610e26565b820191906000526020600020905b815481529060010190602001808311610e0957829003601f168201915b50505050508152602001600182018054610e3f90612160565b80601f0160208091040260200160405190810160405280929190818152602001828054610e6b90612160565b8015610eb85780601f10610e8d57610100808354040283529160200191610eb8565b820191906000526020600020905b815481529060010190602001808311610e9b57829003601f168201915b50505050508152602001600282018054610ed190612160565b80601f0160208091040260200160405190810160405280929190818152602001828054610efd90612160565b8015610f4a5780601f10610f1f57610100808354040283529160200191610f4a565b820191906000526020600020905b815481529060010190602001808311610f2d57829003601f168201915b50505050508152602001600382018054610f6390612160565b80601f0160208091040260200160405190810160405280929190818152602001828054610f8f90612160565b8015610fdc5780601f10610fb157610100808354040283529160200191610fdc565b820191906000526020600020905b815481529060010190602001808311610fbf57829003601f168201915b50505050508152602001600482018054610ff590612160565b80601f016020809104026020016040519081016040528092919081815260200182805461102190612160565b801561106e5780601f106110435761010080835404028352916020019161106e565b820191906000526020600020905b81548152906001019060200180831161105157829003601f168201915b505050505081526020016005820160009054906101000a900473ffffffffffffffffffffffffffffffffffffffff1673ffffffffffffffffffffffffffffffffffffffff1673ffffffffffffffffffffffffffffffffffffffff1681526020016005820160149054906101000a900460ff16151515158152505081526020019060010190610d7a565b50505050905090565b60006040518060e001604052808881526020018781526020018681526020018581526020018481526020013373ffffffffffffffffffffffffffffffffffffffff1681526020018315158152509050600181908060018154018082558091505060019003906000526020600020906006020160009091909190915060008201518160000190816111909190612333565b5060208201518160010190816111a69190612333565b5060408201518160020190816111bc9190612333565b5060608201518160030190816111d29190612333565b5060808201518160040190816111e89190612333565b5060a08201518160050160006101000a81548173ffffffffffffffffffffffffffffffffffffffff021916908373ffffffffffffffffffffffffffffffffffffffff16021790555060c08201518160050160146101000a81548160ff02191690831515021790555050507f5459924f47afb4c4c2b8f167ec368a8a6fa9556fb8490f5f9e7538fca386f23f8787878787338860405161128d9796959493929190611b83565b60405180910390a150505050505050565b60005b60018054905081101561147a573373ffffffffffffffffffffffffffffffffffffffff16600182815481106112d9576112d8612405565b5b906000526020600020906006020160050160009054906101000a900473ffffffffffffffffffffffffffffffffffffffff1673ffffffffffffffffffffffffffffffffffffffff160361146757866001828154811061133b5761133a612405565b5b906000526020600020906006020160000190816113589190612333565b50856001828154811061136e5761136d612405565b5b9060005260206000209060060201600101908161138b9190612333565b5084600182815481106113a1576113a0612405565b5b906000526020600020906006020160020190816113be9190612333565b5083600182815481106113d4576113d3612405565b5b906000526020600020906006020160030190816113f19190612333565b50826001828154811061140757611406612405565b5b906000526020600020906006020160040190816114249190612333565b50816001828154811061143a57611439612405565b5b906000526020600020906006020160050160146101000a81548160ff02191690831515021790555061147a565b808061147290612463565b9150506112a1565b50505050505050565b60008054906101000a900473ffffffffffffffffffffffffffffffffffffffff1673ffffffffffffffffffffffffffffffffffffffff1663f851a4406040518163ffffffff1660e01b8152600401602060405180830381865afa1580156114ee573d6000803e3d6000fd5b505050506040513d601f19601f820116820180604052508101906115129190612072565b73ffffffffffffffffffffffffffffffffffffffff163373ffffffffffffffffffffffffffffffffffffffff161461157f576040517f08c379a000000000000000000000000000000000000000000000000000000000815260040161157690612111565b60405180910390fd5b60005b60018054905081101561175b578773ffffffffffffffffffffffffffffffffffffffff16600182815481106115ba576115b9612405565b5b906000526020600020906006020160050160009054906101000a900473ffffffffffffffffffffffffffffffffffffffff1673ffffffffffffffffffffffffffffffffffffffff160361174857866001828154811061161c5761161b612405565b5b906000526020600020906006020160000190816116399190612333565b50856001828154811061164f5761164e612405565b5b9060005260206000209060060201600101908161166c9190612333565b50846001828154811061168257611681612405565b5b9060005260206000209060060201600201908161169f9190612333565b5083600182815481106116b5576116b4612405565b5b906000526020600020906006020160030190816116d29190612333565b5082600182815481106116e8576116e7612405565b5b906000526020600020906006020160040190816117059190612333565b50816001828154811061171b5761171a612405565b5b906000526020600020906006020160050160146101000a81548160ff02191690831515021790555061175b565b808061175390612463565b915050611582565b5050505050505050565b6000604051905090565b600080fd5b600080fd5b600073ffffffffffffffffffffffffffffffffffffffff82169050919050565b60006117a482611779565b9050919050565b6117b481611799565b81146117bf57600080fd5b50565b6000813590506117d1816117ab565b92915050565b600080fd5b600080fd5b6000601f19601f8301169050919050565b7f4e487b7100000000000000000000000000000000000000000000000000000000600052604160045260246000fd5b61182a826117e1565b810181811067ffffffffffffffff82111715611849576118486117f2565b5b80604052505050565b600061185c611765565b90506118688282611821565b919050565b600067ffffffffffffffff821115611888576118876117f2565b5b611891826117e1565b9050602081019050919050565b82818337600083830152505050565b60006118c06118bb8461186d565b611852565b9050828152602081018484840111156118dc576118db6117dc565b5b6118e784828561189e565b509392505050565b600082601f830112611904576119036117d7565b5b81356119148482602086016118ad565b91505092915050565b60008115159050919050565b6119328161191d565b811461193d57600080fd5b50565b60008135905061194f81611929565b92915050565b600080600080600080600060e0888a0312156119745761197361176f565b5b60006119828a828b016117c2565b975050602088013567ffffffffffffffff8111156119a3576119a2611774565b5b6119af8a828b016118ef565b965050604088013567ffffffffffffffff8111156119d0576119cf611774565b5b6119dc8a828b016118ef565b955050606088013567ffffffffffffffff8111156119fd576119fc611774565b5b611a098a828b016118ef565b945050608088013567ffffffffffffffff811115611a2a57611a29611774565b5b611a368a828b016118ef565b93505060a088013567ffffffffffffffff811115611a5757611a56611774565b5b611a638a828b016118ef565b92505060c0611a748a828b01611940565b91505092959891949750929550565b6000819050919050565b611a9681611a83565b8114611aa157600080fd5b50565b600081359050611ab381611a8d565b92915050565b600060208284031215611acf57611ace61176f565b5b6000611add84828501611aa4565b91505092915050565b600081519050919050565b600082825260208201905092915050565b60005b83811015611b20578082015181840152602081019050611b05565b60008484015250505050565b6000611b3782611ae6565b611b418185611af1565b9350611b51818560208601611b02565b611b5a816117e1565b840191505092915050565b611b6e81611799565b82525050565b611b7d8161191d565b82525050565b600060e0820190508181036000830152611b9d818a611b2c565b90508181036020830152611bb18189611b2c565b90508181036040830152611bc58188611b2c565b90508181036060830152611bd98187611b2c565b90508181036080830152611bed8186611b2c565b9050611bfc60a0830185611b65565b611c0960c0830184611b74565b98975050505050505050565b6000819050919050565b6000611c3a611c35611c3084611779565b611c15565b611779565b9050919050565b6000611c4c82611c1f565b9050919050565b6000611c5e82611c41565b9050919050565b611c6e81611c53565b82525050565b6000602082019050611c896000830184611c65565b92915050565b600060208284031215611ca557611ca461176f565b5b6000611cb3848285016117c2565b91505092915050565b600060c0820190508181036000830152611cd68189611b2c565b90508181036020830152611cea8188611b2c565b90508181036040830152611cfe8187611b2c565b90508181036060830152611d128186611b2c565b90508181036080830152611d268185611b2c565b9050611d3560a0830184611b74565b979650505050505050565b600081519050919050565b600082825260208201905092915050565b6000819050602082019050919050565b600082825260208201905092915050565b6000611d8882611ae6565b611d928185611d6c565b9350611da2818560208601611b02565b611dab816117e1565b840191505092915050565b611dbf81611799565b82525050565b611dce8161191d565b82525050565b600060e0830160008301518482036000860152611df18282611d7d565b91505060208301518482036020860152611e0b8282611d7d565b91505060408301518482036040860152611e258282611d7d565b91505060608301518482036060860152611e3f8282611d7d565b91505060808301518482036080860152611e598282611d7d565b91505060a0830151611e6e60a0860182611db6565b5060c0830151611e8160c0860182611dc5565b508091505092915050565b6000611e988383611dd4565b905092915050565b6000602082019050919050565b6000611eb882611d40565b611ec28185611d4b565b935083602082028501611ed485611d5c565b8060005b85811015611f105784840389528151611ef18582611e8c565b9450611efc83611ea0565b925060208a01995050600181019050611ed8565b50829750879550505050505092915050565b60006020820190508181036000830152611f3c8184611ead565b905092915050565b60008060008060008060c08789031215611f6157611f6061176f565b5b600087013567ffffffffffffffff811115611f7f57611f7e611774565b5b611f8b89828a016118ef565b965050602087013567ffffffffffffffff811115611fac57611fab611774565b5b611fb889828a016118ef565b955050604087013567ffffffffffffffff811115611fd957611fd8611774565b5b611fe589828a016118ef565b945050606087013567ffffffffffffffff81111561200657612005611774565b5b61201289828a016118ef565b935050608087013567ffffffffffffffff81111561203357612032611774565b5b61203f89828a016118ef565b92505060a061205089828a01611940565b9150509295509295509295565b60008151905061206c816117ab565b92915050565b6000602082840312156120885761208761176f565b5b60006120968482850161205d565b91505092915050565b7f4f6e6c79207468652061646d696e2063616e20706572666f726d20746869732060008201527f616374696f6e2e00000000000000000000000000000000000000000000000000602082015250565b60006120fb602783611af1565b91506121068261209f565b604082019050919050565b6000602082019050818103600083015261212a816120ee565b9050919050565b7f4e487b7100000000000000000000000000000000000000000000000000000000600052602260045260246000fd5b6000600282049050600182168061217857607f821691505b60208210810361218b5761218a612131565b5b50919050565b60008190508160005260206000209050919050565b60006020601f8301049050919050565b600082821b905092915050565b6000600883026121f37fffffffffffffffffffffffffffffffffffffffffffffffffffffffffffffffff826121b6565b6121fd86836121b6565b95508019841693508086168417925050509392505050565b600061223061222b61222684611a83565b611c15565b611a83565b9050919050565b6000819050919050565b61224a83612215565b61225e61225682612237565b8484546121c3565b825550505050565b600090565b612273612266565b61227e818484612241565b505050565b5b818110156122a25761229760008261226b565b600181019050612284565b5050565b601f8211156122e7576122b881612191565b6122c1846121a6565b810160208510156122d0578190505b6122e46122dc856121a6565b830182612283565b50505b505050565b600082821c905092915050565b600061230a600019846008026122ec565b1980831691505092915050565b600061232383836122f9565b9150826002028217905092915050565b61233c82611ae6565b67ffffffffffffffff811115612355576123546117f2565b5b61235f8254612160565b61236a8282856122a6565b600060209050601f83116001811461239d576000841561238b578287015190505b6123958582612317565b8655506123fd565b601f1984166123ab86612191565b60005b828110156123d3578489015182556001820191506020850194506020810190506123ae565b868310156123f057848901516123ec601f8916826122f9565b8355505b6001600288020188555050505b505050505050565b7f4e487b7100000000000000000000000000000000000000000000000000000000600052603260045260246000fd5b7f4e487b7100000000000000000000000000000000000000000000000000000000600052601160045260246000fd5b600061246e82611a83565b91507fffffffffffffffffffffffffffffffffffffffffffffffffffffffffffffffff82036124a05761249f612434565b5b60018201905091905056fea2646970667358221220c6f5ad5c7c18bfb81c3018e8d7ab2e00672849d9a348d72b1b1c61e249e15da964736f6c63430008110033",
  "linkReferences": {},
  "deployedLinkReferences": {}
}