{
  "_format": "hh-sol-artifact-1",
  "contractName": "ConsultationResult",
  "sourceName": "contracts/konsultasi.sol",
  "abi": [
    {
      "inputs": [
        {
          "internalType": "address",
          "name": "_rolesContractAddress",
          "type": "address"
        }
      ],
      "stateMutability": "nonpayable",
      "type": "constructor"
    },
    {
      "inputs": [
        {
          "internalType": "uint256",
          "name": "",
          "type": "uint256"
        }
      ],
      "name": "accountsWithConsultations",
      "outputs": [
        {
          "internalType": "address",
          "name": "",
          "type": "address"
        }
      ],
      "stateMutability": "view",
      "type": "function"
    },
    {
      "inputs": [
        {
          "internalType": "address",
          "name": "_wallet",
          "type": "address"
        },
        {
          "internalType": "string",
          "name": "_nama",
          "type": "string"
        },
        {
          "internalType": "string",
          "name": "_namaDokter",
          "type": "string"
        },
        {
          "internalType": "string",
          "name": "_tanggal",
          "type": "string"
        },
        {
          "internalType": "string",
          "name": "_keluhan",
          "type": "string"
        },
        {
          "internalType": "string",
          "name": "_diagnosa",
          "type": "string"
        },
        {
          "internalType": "string",
          "name": "_tensi",
          "type": "string"
        },
        {
          "internalType": "string",
          "name": "_gula",
          "type": "string"
        }
      ],
      "name": "addConsultation",
      "outputs": [],
      "stateMutability": "nonpayable",
      "type": "function"
    },
    {
      "inputs": [],
      "name": "consultationCount",
      "outputs": [
        {
          "internalType": "uint256",
          "name": "",
          "type": "uint256"
        }
      ],
      "stateMutability": "view",
      "type": "function"
    },
    {
      "inputs": [
        {
          "internalType": "address",
          "name": "",
          "type": "address"
        },
        {
          "internalType": "uint256",
          "name": "",
          "type": "uint256"
        }
      ],
      "name": "consultations",
      "outputs": [
        {
          "internalType": "string",
          "name": "nama",
          "type": "string"
        },
        {
          "internalType": "string",
          "name": "namaDokter",
          "type": "string"
        },
        {
          "internalType": "string",
          "name": "tanggal",
          "type": "string"
        },
        {
          "internalType": "string",
          "name": "keluhan",
          "type": "string"
        },
        {
          "internalType": "string",
          "name": "diagnosa",
          "type": "string"
        },
        {
          "internalType": "string",
          "name": "tensi",
          "type": "string"
        },
        {
          "internalType": "string",
          "name": "gula",
          "type": "string"
        },
        {
          "internalType": "address",
          "name": "wallet",
          "type": "address"
        }
      ],
      "stateMutability": "view",
      "type": "function"
    },
    {
      "inputs": [
        {
          "internalType": "uint256",
          "name": "offset",
          "type": "uint256"
        }
      ],
      "name": "getAllConsultations",
      "outputs": [
        {
          "components": [
            {
              "internalType": "string",
              "name": "nama",
              "type": "string"
            },
            {
              "internalType": "string",
              "name": "namaDokter",
              "type": "string"
            },
            {
              "internalType": "string",
              "name": "tanggal",
              "type": "string"
            },
            {
              "internalType": "string",
              "name": "keluhan",
              "type": "string"
            },
            {
              "internalType": "string",
              "name": "diagnosa",
              "type": "string"
            },
            {
              "internalType": "string",
              "name": "tensi",
              "type": "string"
            },
            {
              "internalType": "string",
              "name": "gula",
              "type": "string"
            },
            {
              "internalType": "address",
              "name": "wallet",
              "type": "address"
            }
          ],
          "internalType": "struct ConsultationResult.Data[]",
          "name": "",
          "type": "tuple[]"
        }
      ],
      "stateMutability": "view",
      "type": "function"
    },
    {
      "inputs": [],
      "name": "getConsultationsPasien",
      "outputs": [
        {
          "components": [
            {
              "internalType": "string",
              "name": "nama",
              "type": "string"
            },
            {
              "internalType": "string",
              "name": "namaDokter",
              "type": "string"
            },
            {
              "internalType": "string",
              "name": "tanggal",
              "type": "string"
            },
            {
              "internalType": "string",
              "name": "keluhan",
              "type": "string"
            },
            {
              "internalType": "string",
              "name": "diagnosa",
              "type": "string"
            },
            {
              "internalType": "string",
              "name": "tensi",
              "type": "string"
            },
            {
              "internalType": "string",
              "name": "gula",
              "type": "string"
            },
            {
              "internalType": "address",
              "name": "wallet",
              "type": "address"
            }
          ],
          "internalType": "struct ConsultationResult.Data[]",
          "name": "",
          "type": "tuple[]"
        }
      ],
      "stateMutability": "view",
      "type": "function"
    },
    {
      "inputs": [],
      "name": "roles",
      "outputs": [
        {
          "internalType": "contract UserRoles",
          "name": "",
          "type": "address"
        }
      ],
      "stateMutability": "view",
      "type": "function"
    },
    {
      "inputs": [
        {
          "internalType": "address",
          "name": "_wallet",
          "type": "address"
        },
        {
          "internalType": "uint256",
          "name": "_index",
          "type": "uint256"
        },
        {
          "internalType": "string",
          "name": "_nama",
          "type": "string"
        },
        {
          "internalType": "string",
          "name": "_namaDokter",
          "type": "string"
        },
        {
          "internalType": "string",
          "name": "_tanggal",
          "type": "string"
        },
        {
          "internalType": "string",
          "name": "_keluhan",
          "type": "string"
        },
        {
          "internalType": "string",
          "name": "_diagnosa",
          "type": "string"
        },
        {
          "internalType": "string",
          "name": "_tensi",
          "type": "string"
        },
        {
          "internalType": "string",
          "name": "_gula",
          "type": "string"
        }
      ],
      "name": "updateConsultation",
      "outputs": [],
      "stateMutability": "nonpayable",
      "type": "function"
    }
  ],
  "bytecode": "0x60806040523480156200001157600080fd5b5060405162002bc238038062002bc28339818101604052810190620000379190620000e8565b806000806101000a81548173ffffffffffffffffffffffffffffffffffffffff021916908373ffffffffffffffffffffffffffffffffffffffff160217905550506200011a565b600080fd5b600073ffffffffffffffffffffffffffffffffffffffff82169050919050565b6000620000b08262000083565b9050919050565b620000c281620000a3565b8114620000ce57600080fd5b50565b600081519050620000e281620000b7565b92915050565b6000602082840312156200010157620001006200007e565b5b60006200011184828501620000d1565b91505092915050565b612a98806200012a6000396000f3fe608060405234801561001057600080fd5b50600436106100885760003560e01c8063745ab0e61161005b578063745ab0e614610142578063b5067f231461015e578063c0f07fde1461017c578063f4fd62d31461019a57610088565b80632ba155001461008d5780632d1bb6fc146100bd5780633001b568146100ed578063392f5f6414610124575b600080fd5b6100a760048036038101906100a29190611b85565b6101b6565b6040516100b49190611e1f565b60405180910390f35b6100d760048036038101906100d29190611b85565b61097a565b6040516100e49190611e50565b60405180910390f35b61010760048036038101906101029190611e97565b6109b9565b60405161011b989796959493929190611f21565b60405180910390f35b61012c610df6565b604051610139919061202f565b60405180910390f35b61015c6004803603810190610157919061217f565b610e1a565b005b610166611176565b6040516101739190611e1f565b60405180910390f35b610184611740565b604051610191919061231c565b60405180910390f35b6101b460048036038101906101af9190612337565b611746565b005b606060008054906101000a900473ffffffffffffffffffffffffffffffffffffffff1673ffffffffffffffffffffffffffffffffffffffff166324d7806c336040518263ffffffff1660e01b81526004016102119190611e50565b602060405180830381865afa15801561022e573d6000803e3d6000fd5b505050506040513d601f19601f8201168201806040525081019061025291906124e9565b806102f3575060008054906101000a900473ffffffffffffffffffffffffffffffffffffffff1673ffffffffffffffffffffffffffffffffffffffff16635c4c9348336040518263ffffffff1660e01b81526004016102b19190611e50565b602060405180830381865afa1580156102ce573d6000803e3d6000fd5b505050506040513d601f19601f820116820180604052508101906102f291906124e9565b5b610332576040517f08c379a000000000000000000000000000000000000000000000000000000000815260040161032990612588565b60405180910390fd5b6000600a9050600081600a61034791906125d7565b67ffffffffffffffff8111156103605761035f612054565b5b60405190808252806020026020018201604052801561039957816020015b610386611ae0565b81526020019060019003908161037e5790505b5090506000808590505b60028054905081101561096e57600060016000600284815481106103ca576103c9612619565b5b9060005260206000200160009054906101000a900473ffffffffffffffffffffffffffffffffffffffff1673ffffffffffffffffffffffffffffffffffffffff1673ffffffffffffffffffffffffffffffffffffffff168152602001908152602001600020805480602002602001604051908101604052809291908181526020016000905b828210156108d657838290600052602060002090600802016040518061010001604052908160008201805461048390612677565b80601f01602080910402602001604051908101604052809291908181526020018280546104af90612677565b80156104fc5780601f106104d1576101008083540402835291602001916104fc565b820191906000526020600020905b8154815290600101906020018083116104df57829003601f168201915b5050505050815260200160018201805461051590612677565b80601f016020809104026020016040519081016040528092919081815260200182805461054190612677565b801561058e5780601f106105635761010080835404028352916020019161058e565b820191906000526020600020905b81548152906001019060200180831161057157829003601f168201915b505050505081526020016002820180546105a790612677565b80601f01602080910402602001604051908101604052809291908181526020018280546105d390612677565b80156106205780601f106105f557610100808354040283529160200191610620565b820191906000526020600020905b81548152906001019060200180831161060357829003601f168201915b5050505050815260200160038201805461063990612677565b80601f016020809104026020016040519081016040528092919081815260200182805461066590612677565b80156106b25780601f10610687576101008083540402835291602001916106b2565b820191906000526020600020905b81548152906001019060200180831161069557829003601f168201915b505050505081526020016004820180546106cb90612677565b80601f01602080910402602001604051908101604052809291908181526020018280546106f790612677565b80156107445780601f1061071957610100808354040283529160200191610744565b820191906000526020600020905b81548152906001019060200180831161072757829003601f168201915b5050505050815260200160058201805461075d90612677565b80601f016020809104026020016040519081016040528092919081815260200182805461078990612677565b80156107d65780601f106107ab576101008083540402835291602001916107d6565b820191906000526020600020905b8154815290600101906020018083116107b957829003601f168201915b505050505081526020016006820180546107ef90612677565b80601f016020809104026020016040519081016040528092919081815260200182805461081b90612677565b80156108685780601f1061083d57610100808354040283529160200191610868565b820191906000526020600020905b81548152906001019060200180831161084b57829003601f168201915b505050505081526020016007820160009054906101000a900473ffffffffffffffffffffffffffffffffffffffff1673ffffffffffffffffffffffffffffffffffffffff1673ffffffffffffffffffffffffffffffffffffffff16815250508152602001906001019061044f565b50505050905060005b8151811080156108fa5750600a866108f791906125d7565b84105b156109595781818151811061091257610911612619565b5b602002602001015185858151811061092d5761092c612619565b5b60200260200101819052508380610943906126a8565b9450508080610951906126a8565b9150506108df565b50508080610966906126a8565b9150506103a3565b50819350505050919050565b6002818154811061098a57600080fd5b906000526020600020016000915054906101000a900473ffffffffffffffffffffffffffffffffffffffff1681565b600160205281600052604060002081815481106109d557600080fd5b9060005260206000209060080201600091509150508060000180546109f990612677565b80601f0160208091040260200160405190810160405280929190818152602001828054610a2590612677565b8015610a725780601f10610a4757610100808354040283529160200191610a72565b820191906000526020600020905b815481529060010190602001808311610a5557829003601f168201915b505050505090806001018054610a8790612677565b80601f0160208091040260200160405190810160405280929190818152602001828054610ab390612677565b8015610b005780601f10610ad557610100808354040283529160200191610b00565b820191906000526020600020905b815481529060010190602001808311610ae357829003601f168201915b505050505090806002018054610b1590612677565b80601f0160208091040260200160405190810160405280929190818152602001828054610b4190612677565b8015610b8e5780601f10610b6357610100808354040283529160200191610b8e565b820191906000526020600020905b815481529060010190602001808311610b7157829003601f168201915b505050505090806003018054610ba390612677565b80601f0160208091040260200160405190810160405280929190818152602001828054610bcf90612677565b8015610c1c5780601f10610bf157610100808354040283529160200191610c1c565b820191906000526020600020905b815481529060010190602001808311610bff57829003601f168201915b505050505090806004018054610c3190612677565b80601f0160208091040260200160405190810160405280929190818152602001828054610c5d90612677565b8015610caa5780601f10610c7f57610100808354040283529160200191610caa565b820191906000526020600020905b815481529060010190602001808311610c8d57829003601f168201915b505050505090806005018054610cbf90612677565b80601f0160208091040260200160405190810160405280929190818152602001828054610ceb90612677565b8015610d385780601f10610d0d57610100808354040283529160200191610d38565b820191906000526020600020905b815481529060010190602001808311610d1b57829003601f168201915b505050505090806006018054610d4d90612677565b80601f0160208091040260200160405190810160405280929190818152602001828054610d7990612677565b8015610dc65780601f10610d9b57610100808354040283529160200191610dc6565b820191906000526020600020905b815481529060010190602001808311610da957829003601f168201915b5050505050908060070160009054906101000a900473ffffffffffffffffffffffffffffffffffffffff16905088565b60008054906101000a900473ffffffffffffffffffffffffffffffffffffffff1681565b60008054906101000a900473ffffffffffffffffffffffffffffffffffffffff1673ffffffffffffffffffffffffffffffffffffffff166324d7806c336040518263ffffffff1660e01b8152600401610e739190611e50565b602060405180830381865afa158015610e90573d6000803e3d6000fd5b505050506040513d601f19601f82011682018060405250810190610eb491906124e9565b80610f55575060008054906101000a900473ffffffffffffffffffffffffffffffffffffffff1673ffffffffffffffffffffffffffffffffffffffff16635c4c9348336040518263ffffffff1660e01b8152600401610f139190611e50565b602060405180830381865afa158015610f30573d6000803e3d6000fd5b505050506040513d601f19601f82011682018060405250810190610f5491906124e9565b5b610f94576040517f08c379a0000000000000000000000000000000000000000000000000000000008152600401610f8b90612588565b60405180910390fd5b6003548810610fd8576040517f08c379a0000000000000000000000000000000000000000000000000000000008152600401610fcf9061273c565b60405180910390fd5b6040518061010001604052808881526020018781526020018681526020018581526020018481526020018381526020018281526020018a73ffffffffffffffffffffffffffffffffffffffff16815250600160008b73ffffffffffffffffffffffffffffffffffffffff1673ffffffffffffffffffffffffffffffffffffffff168152602001908152602001600020898154811061107957611078612619565b5b9060005260206000209060080201600082015181600001908161109c91906128fe565b5060208201518160010190816110b291906128fe565b5060408201518160020190816110c891906128fe565b5060608201518160030190816110de91906128fe565b5060808201518160040190816110f491906128fe565b5060a082015181600501908161110a91906128fe565b5060c082015181600601908161112091906128fe565b5060e08201518160070160006101000a81548173ffffffffffffffffffffffffffffffffffffffff021916908373ffffffffffffffffffffffffffffffffffffffff160217905550905050505050505050505050565b606060008054906101000a900473ffffffffffffffffffffffffffffffffffffffff1673ffffffffffffffffffffffffffffffffffffffff16631132beb5336040518263ffffffff1660e01b81526004016111d19190611e50565b602060405180830381865afa1580156111ee573d6000803e3d6000fd5b505050506040513d601f19601f8201168201806040525081019061121291906124e9565b611251576040517f08c379a000000000000000000000000000000000000000000000000000000000815260040161124890612a42565b60405180910390fd5b600160003373ffffffffffffffffffffffffffffffffffffffff1673ffffffffffffffffffffffffffffffffffffffff168152602001908152602001600020805480602002602001604051908101604052809291908181526020016000905b828210156117375783829060005260206000209060080201604051806101000160405290816000820180546112e490612677565b80601f016020809104026020016040519081016040528092919081815260200182805461131090612677565b801561135d5780601f106113325761010080835404028352916020019161135d565b820191906000526020600020905b81548152906001019060200180831161134057829003601f168201915b5050505050815260200160018201805461137690612677565b80601f01602080910402602001604051908101604052809291908181526020018280546113a290612677565b80156113ef5780601f106113c4576101008083540402835291602001916113ef565b820191906000526020600020905b8154815290600101906020018083116113d257829003601f168201915b5050505050815260200160028201805461140890612677565b80601f016020809104026020016040519081016040528092919081815260200182805461143490612677565b80156114815780601f1061145657610100808354040283529160200191611481565b820191906000526020600020905b81548152906001019060200180831161146457829003601f168201915b5050505050815260200160038201805461149a90612677565b80601f01602080910402602001604051908101604052809291908181526020018280546114c690612677565b80156115135780601f106114e857610100808354040283529160200191611513565b820191906000526020600020905b8154815290600101906020018083116114f657829003601f168201915b5050505050815260200160048201805461152c90612677565b80601f016020809104026020016040519081016040528092919081815260200182805461155890612677565b80156115a55780601f1061157a576101008083540402835291602001916115a5565b820191906000526020600020905b81548152906001019060200180831161158857829003601f168201915b505050505081526020016005820180546115be90612677565b80601f01602080910402602001604051908101604052809291908181526020018280546115ea90612677565b80156116375780601f1061160c57610100808354040283529160200191611637565b820191906000526020600020905b81548152906001019060200180831161161a57829003601f168201915b5050505050815260200160068201805461165090612677565b80601f016020809104026020016040519081016040528092919081815260200182805461167c90612677565b80156116c95780601f1061169e576101008083540402835291602001916116c9565b820191906000526020600020905b8154815290600101906020018083116116ac57829003601f168201915b505050505081526020016007820160009054906101000a900473ffffffffffffffffffffffffffffffffffffffff1673ffffffffffffffffffffffffffffffffffffffff1673ffffffffffffffffffffffffffffffffffffffff1681525050815260200190600101906112b0565b50505050905090565b60035481565b60008054906101000a900473ffffffffffffffffffffffffffffffffffffffff1673ffffffffffffffffffffffffffffffffffffffff166324d7806c336040518263ffffffff1660e01b815260040161179f9190611e50565b602060405180830381865afa1580156117bc573d6000803e3d6000fd5b505050506040513d601f19601f820116820180604052508101906117e091906124e9565b80611881575060008054906101000a900473ffffffffffffffffffffffffffffffffffffffff1673ffffffffffffffffffffffffffffffffffffffff16635c4c9348336040518263ffffffff1660e01b815260040161183f9190611e50565b602060405180830381865afa15801561185c573d6000803e3d6000fd5b505050506040513d601f19601f8201168201806040525081019061188091906124e9565b5b6118c0576040517f08c379a00000000000000000000000000000000000000000000000000000000081526004016118b790612588565b60405180910390fd5b600160008973ffffffffffffffffffffffffffffffffffffffff1673ffffffffffffffffffffffffffffffffffffffff1681526020019081526020016000206040518061010001604052808981526020018881526020018781526020018681526020018581526020018481526020018381526020018a73ffffffffffffffffffffffffffffffffffffffff168152509080600181540180825580915050600190039060005260206000209060080201600090919091909150600082015181600001908161198d91906128fe565b5060208201518160010190816119a391906128fe565b5060408201518160020190816119b991906128fe565b5060608201518160030190816119cf91906128fe565b5060808201518160040190816119e591906128fe565b5060a08201518160050190816119fb91906128fe565b5060c0820151816006019081611a1191906128fe565b5060e08201518160070160006101000a81548173ffffffffffffffffffffffffffffffffffffffff021916908373ffffffffffffffffffffffffffffffffffffffff16021790555050506002889080600181540180825580915050600190039060005260206000200160009091909190916101000a81548173ffffffffffffffffffffffffffffffffffffffff021916908373ffffffffffffffffffffffffffffffffffffffff16021790555060036000815480929190611ad1906126a8565b91905055505050505050505050565b60405180610100016040528060608152602001606081526020016060815260200160608152602001606081526020016060815260200160608152602001600073ffffffffffffffffffffffffffffffffffffffff1681525090565b6000604051905090565b600080fd5b600080fd5b6000819050919050565b611b6281611b4f565b8114611b6d57600080fd5b50565b600081359050611b7f81611b59565b92915050565b600060208284031215611b9b57611b9a611b45565b5b6000611ba984828501611b70565b91505092915050565b600081519050919050565b600082825260208201905092915050565b6000819050602082019050919050565b600081519050919050565b600082825260208201905092915050565b60005b83811015611c18578082015181840152602081019050611bfd565b60008484015250505050565b6000601f19601f8301169050919050565b6000611c4082611bde565b611c4a8185611be9565b9350611c5a818560208601611bfa565b611c6381611c24565b840191505092915050565b600073ffffffffffffffffffffffffffffffffffffffff82169050919050565b6000611c9982611c6e565b9050919050565b611ca981611c8e565b82525050565b6000610100830160008301518482036000860152611ccd8282611c35565b91505060208301518482036020860152611ce78282611c35565b91505060408301518482036040860152611d018282611c35565b91505060608301518482036060860152611d1b8282611c35565b91505060808301518482036080860152611d358282611c35565b91505060a083015184820360a0860152611d4f8282611c35565b91505060c083015184820360c0860152611d698282611c35565b91505060e0830151611d7e60e0860182611ca0565b508091505092915050565b6000611d958383611caf565b905092915050565b6000602082019050919050565b6000611db582611bb2565b611dbf8185611bbd565b935083602082028501611dd185611bce565b8060005b85811015611e0d5784840389528151611dee8582611d89565b9450611df983611d9d565b925060208a01995050600181019050611dd5565b50829750879550505050505092915050565b60006020820190508181036000830152611e398184611daa565b905092915050565b611e4a81611c8e565b82525050565b6000602082019050611e656000830184611e41565b92915050565b611e7481611c8e565b8114611e7f57600080fd5b50565b600081359050611e9181611e6b565b92915050565b60008060408385031215611eae57611ead611b45565b5b6000611ebc85828601611e82565b9250506020611ecd85828601611b70565b9150509250929050565b600082825260208201905092915050565b6000611ef382611bde565b611efd8185611ed7565b9350611f0d818560208601611bfa565b611f1681611c24565b840191505092915050565b6000610100820190508181036000830152611f3c818b611ee8565b90508181036020830152611f50818a611ee8565b90508181036040830152611f648189611ee8565b90508181036060830152611f788188611ee8565b90508181036080830152611f8c8187611ee8565b905081810360a0830152611fa08186611ee8565b905081810360c0830152611fb48185611ee8565b9050611fc360e0830184611e41565b9998505050505050505050565b6000819050919050565b6000611ff5611ff0611feb84611c6e565b611fd0565b611c6e565b9050919050565b600061200782611fda565b9050919050565b600061201982611ffc565b9050919050565b6120298161200e565b82525050565b60006020820190506120446000830184612020565b92915050565b600080fd5b600080fd5b7f4e487b7100000000000000000000000000000000000000000000000000000000600052604160045260246000fd5b61208c82611c24565b810181811067ffffffffffffffff821117156120ab576120aa612054565b5b80604052505050565b60006120be611b3b565b90506120ca8282612083565b919050565b600067ffffffffffffffff8211156120ea576120e9612054565b5b6120f382611c24565b9050602081019050919050565b82818337600083830152505050565b600061212261211d846120cf565b6120b4565b90508281526020810184848401111561213e5761213d61204f565b5b612149848285612100565b509392505050565b600082601f8301126121665761216561204a565b5b813561217684826020860161210f565b91505092915050565b60008060008060008060008060006101208a8c0312156121a2576121a1611b45565b5b60006121b08c828d01611e82565b99505060206121c18c828d01611b70565b98505060408a013567ffffffffffffffff8111156121e2576121e1611b4a565b5b6121ee8c828d01612151565b97505060608a013567ffffffffffffffff81111561220f5761220e611b4a565b5b61221b8c828d01612151565b96505060808a013567ffffffffffffffff81111561223c5761223b611b4a565b5b6122488c828d01612151565b95505060a08a013567ffffffffffffffff81111561226957612268611b4a565b5b6122758c828d01612151565b94505060c08a013567ffffffffffffffff81111561229657612295611b4a565b5b6122a28c828d01612151565b93505060e08a013567ffffffffffffffff8111156122c3576122c2611b4a565b5b6122cf8c828d01612151565b9250506101008a013567ffffffffffffffff8111156122f1576122f0611b4a565b5b6122fd8c828d01612151565b9150509295985092959850929598565b61231681611b4f565b82525050565b6000602082019050612331600083018461230d565b92915050565b600080600080600080600080610100898b03121561235857612357611b45565b5b60006123668b828c01611e82565b985050602089013567ffffffffffffffff81111561238757612386611b4a565b5b6123938b828c01612151565b975050604089013567ffffffffffffffff8111156123b4576123b3611b4a565b5b6123c08b828c01612151565b965050606089013567ffffffffffffffff8111156123e1576123e0611b4a565b5b6123ed8b828c01612151565b955050608089013567ffffffffffffffff81111561240e5761240d611b4a565b5b61241a8b828c01612151565b94505060a089013567ffffffffffffffff81111561243b5761243a611b4a565b5b6124478b828c01612151565b93505060c089013567ffffffffffffffff81111561246857612467611b4a565b5b6124748b828c01612151565b92505060e089013567ffffffffffffffff81111561249557612494611b4a565b5b6124a18b828c01612151565b9150509295985092959890939650565b60008115159050919050565b6124c6816124b1565b81146124d157600080fd5b50565b6000815190506124e3816124bd565b92915050565b6000602082840312156124ff576124fe611b45565b5b600061250d848285016124d4565b91505092915050565b7f48616e79612061646d696e206174617520646f6b7465722079616e672064696960008201527f7a696e6b616e20756e74756b206d656e67616b7365732e000000000000000000602082015250565b6000612572603783611ed7565b915061257d82612516565b604082019050919050565b600060208201905081810360008301526125a181612565565b9050919050565b7f4e487b7100000000000000000000000000000000000000000000000000000000600052601160045260246000fd5b60006125e282611b4f565b91506125ed83611b4f565b92508282026125fb81611b4f565b91508282048414831517612612576126116125a8565b5b5092915050565b7f4e487b7100000000000000000000000000000000000000000000000000000000600052603260045260246000fd5b7f4e487b7100000000000000000000000000000000000000000000000000000000600052602260045260246000fd5b6000600282049050600182168061268f57607f821691505b6020821081036126a2576126a1612648565b5b50919050565b60006126b382611b4f565b91507fffffffffffffffffffffffffffffffffffffffffffffffffffffffffffffffff82036126e5576126e46125a8565b5b600182019050919050565b7f436f6e73756c746174696f6e2064617461206e6f7420666f756e640000000000600082015250565b6000612726601b83611ed7565b9150612731826126f0565b602082019050919050565b6000602082019050818103600083015261275581612719565b9050919050565b60008190508160005260206000209050919050565b60006020601f8301049050919050565b600082821b905092915050565b6000600883026127be7fffffffffffffffffffffffffffffffffffffffffffffffffffffffffffffffff82612781565b6127c88683612781565b95508019841693508086168417925050509392505050565b60006127fb6127f66127f184611b4f565b611fd0565b611b4f565b9050919050565b6000819050919050565b612815836127e0565b61282961282182612802565b84845461278e565b825550505050565b600090565b61283e612831565b61284981848461280c565b505050565b5b8181101561286d57612862600082612836565b60018101905061284f565b5050565b601f8211156128b2576128838161275c565b61288c84612771565b8101602085101561289b578190505b6128af6128a785612771565b83018261284e565b50505b505050565b600082821c905092915050565b60006128d5600019846008026128b7565b1980831691505092915050565b60006128ee83836128c4565b9150826002028217905092915050565b61290782611bde565b67ffffffffffffffff8111156129205761291f612054565b5b61292a8254612677565b612935828285612871565b600060209050601f8311600181146129685760008415612956578287015190505b61296085826128e2565b8655506129c8565b601f1984166129768661275c565b60005b8281101561299e57848901518255600182019150602085019450602081019050612979565b868310156129bb57848901516129b7601f8916826128c4565b8355505b6001600288020188555050505b505050505050565b7f48616e79612070617369656e2079616e67206469697a696e6b616e20756e747560008201527f6b206d656e67616b736573000000000000000000000000000000000000000000602082015250565b6000612a2c602b83611ed7565b9150612a37826129d0565b604082019050919050565b60006020820190508181036000830152612a5b81612a1f565b905091905056fea2646970667358221220112e5eb53a1ab9830f177d5437d12599df365203a856c7d55acee5721a8f522a64736f6c63430008110033",
  "linkReferences": {},
  "deployedLinkReferences": {}
}